{
  "contractName": "ETBStaking",
  "abi": [
    {
      "inputs": [
        {
          "internalType": "address",
          "name": "tokenForStaking",
          "type": "address"
        },
        {
          "internalType": "address",
          "name": "rewardToken",
          "type": "address"
        }
      ],
      "stateMutability": "nonpayable",
      "type": "constructor"
    },
    {
      "anonymous": false,
      "inputs": [
        {
          "indexed": true,
          "internalType": "address",
          "name": "previousOwner",
          "type": "address"
        },
        {
          "indexed": true,
          "internalType": "address",
          "name": "newOwner",
          "type": "address"
        }
      ],
      "name": "OwnershipTransferred",
      "type": "event"
    },
    {
      "anonymous": false,
      "inputs": [
        {
          "indexed": true,
          "internalType": "uint256",
          "name": "_stage",
          "type": "uint256"
        },
        {
          "indexed": true,
          "internalType": "address",
          "name": "_user",
          "type": "address"
        },
        {
          "indexed": true,
          "internalType": "uint256",
          "name": "_amount",
          "type": "uint256"
        }
      ],
      "name": "Stake",
      "type": "event"
    },
    {
      "anonymous": false,
      "inputs": [
        {
          "indexed": true,
          "internalType": "uint256",
          "name": "_stage",
          "type": "uint256"
        },
        {
          "indexed": true,
          "internalType": "uint256",
          "name": "_startTime",
          "type": "uint256"
        },
        {
          "indexed": true,
          "internalType": "uint256",
          "name": "_endTime",
          "type": "uint256"
        },
        {
          "indexed": false,
          "internalType": "uint256",
          "name": "_reward",
          "type": "uint256"
        }
      ],
      "name": "StakingStageCreated",
      "type": "event"
    },
    {
      "anonymous": false,
      "inputs": [
        {
          "indexed": true,
          "internalType": "uint256",
          "name": "_stage",
          "type": "uint256"
        },
        {
          "indexed": true,
          "internalType": "address",
          "name": "_user",
          "type": "address"
        },
        {
          "indexed": true,
          "internalType": "uint256",
          "name": "_amount",
          "type": "uint256"
        },
        {
          "indexed": false,
          "internalType": "uint256",
          "name": "_reward",
          "type": "uint256"
        },
        {
          "indexed": false,
          "internalType": "uint256",
          "name": "_depositTime",
          "type": "uint256"
        }
      ],
      "name": "Withdraw",
      "type": "event"
    },
    {
      "inputs": [],
      "name": "owner",
      "outputs": [
        {
          "internalType": "address",
          "name": "",
          "type": "address"
        }
      ],
      "stateMutability": "view",
      "type": "function",
      "constant": true
    },
    {
      "inputs": [],
      "name": "renounceOwnership",
      "outputs": [],
      "stateMutability": "nonpayable",
      "type": "function"
    },
    {
      "inputs": [
        {
          "internalType": "address",
          "name": "newOwner",
          "type": "address"
        }
      ],
      "name": "transferOwnership",
      "outputs": [],
      "stateMutability": "nonpayable",
      "type": "function"
    },
    {
      "inputs": [
        {
          "internalType": "uint256",
          "name": "reward",
          "type": "uint256"
        },
        {
          "internalType": "uint256",
          "name": "startTime",
          "type": "uint256"
        },
        {
          "internalType": "uint256",
          "name": "endTime",
          "type": "uint256"
        }
      ],
      "name": "addStakeStage",
      "outputs": [],
      "stateMutability": "nonpayable",
      "type": "function"
    },
    {
      "inputs": [
        {
          "internalType": "uint256",
          "name": "stage",
          "type": "uint256"
        },
        {
          "internalType": "uint256",
          "name": "value",
          "type": "uint256"
        }
      ],
      "name": "stake",
      "outputs": [],
      "stateMutability": "nonpayable",
      "type": "function"
    },
    {
      "inputs": [
        {
          "internalType": "uint256",
          "name": "stage",
          "type": "uint256"
        }
      ],
      "name": "withdraw",
      "outputs": [],
      "stateMutability": "nonpayable",
      "type": "function"
    },
    {
      "inputs": [
        {
          "internalType": "uint256",
          "name": "stage",
          "type": "uint256"
        },
        {
          "internalType": "address",
          "name": "holderAddress",
          "type": "address"
        }
      ],
      "name": "getReward",
      "outputs": [
        {
          "internalType": "uint256",
          "name": "",
          "type": "uint256"
        }
      ],
      "stateMutability": "view",
      "type": "function",
      "constant": true
    },
    {
      "inputs": [
        {
          "internalType": "uint256",
          "name": "stage",
          "type": "uint256"
        }
      ],
      "name": "isStackingStageIsActive",
      "outputs": [
        {
          "internalType": "bool",
          "name": "",
          "type": "bool"
        }
      ],
      "stateMutability": "view",
      "type": "function",
      "constant": true
    },
    {
      "inputs": [],
      "name": "getStackingStagesLength",
      "outputs": [
        {
          "internalType": "uint256",
          "name": "",
          "type": "uint256"
        }
      ],
      "stateMutability": "view",
      "type": "function",
      "constant": true
    },
    {
      "inputs": [
        {
          "internalType": "uint256",
          "name": "stage",
          "type": "uint256"
        }
      ],
      "name": "getStackingStage",
      "outputs": [
        {
          "internalType": "uint256",
          "name": "",
          "type": "uint256"
        },
        {
          "internalType": "uint256",
          "name": "",
          "type": "uint256"
        },
        {
          "internalType": "uint256",
          "name": "",
          "type": "uint256"
        },
        {
          "internalType": "uint256",
          "name": "",
          "type": "uint256"
        },
        {
          "internalType": "uint256",
          "name": "",
          "type": "uint256"
        },
        {
          "internalType": "uint256",
          "name": "",
          "type": "uint256"
        },
        {
          "internalType": "uint256",
          "name": "",
          "type": "uint256"
        }
      ],
      "stateMutability": "view",
      "type": "function",
      "constant": true
    },
    {
      "inputs": [
        {
          "internalType": "uint256",
          "name": "stage",
          "type": "uint256"
        },
        {
          "internalType": "address",
          "name": "holderAddress",
          "type": "address"
        }
      ],
      "name": "getHolderInfo",
      "outputs": [
        {
          "internalType": "uint256",
          "name": "",
          "type": "uint256"
        },
        {
          "internalType": "uint256",
          "name": "",
          "type": "uint256"
        },
        {
          "internalType": "uint256",
          "name": "",
          "type": "uint256"
        }
      ],
      "stateMutability": "view",
      "type": "function",
      "constant": true
    },
    {
      "inputs": [
        {
          "internalType": "address",
          "name": "rewardToken",
          "type": "address"
        }
      ],
      "name": "setRewardToken",
      "outputs": [],
      "stateMutability": "nonpayable",
      "type": "function"
    },
    {
      "inputs": [
        {
          "internalType": "address",
          "name": "supportedToken",
          "type": "address"
        }
      ],
      "name": "setSupportedToken",
      "outputs": [],
      "stateMutability": "nonpayable",
      "type": "function"
    },
    {
      "inputs": [],
      "name": "getRewardToken",
      "outputs": [
        {
          "internalType": "address",
          "name": "",
          "type": "address"
        }
      ],
      "stateMutability": "view",
      "type": "function",
      "constant": true
    },
    {
      "inputs": [],
      "name": "getSupportedToken",
      "outputs": [
        {
          "internalType": "address",
          "name": "",
          "type": "address"
        }
      ],
      "stateMutability": "view",
      "type": "function",
      "constant": true
    },
    {
      "inputs": [],
      "name": "getOwner",
      "outputs": [
        {
          "internalType": "address",
          "name": "",
          "type": "address"
        }
      ],
      "stateMutability": "view",
      "type": "function",
      "constant": true
    },
    {
      "inputs": [
        {
          "internalType": "address",
          "name": "token",
          "type": "address"
        }
      ],
      "name": "rescueBEP20",
      "outputs": [],
      "stateMutability": "nonpayable",
      "type": "function"
    },
    {
      "inputs": [],
      "name": "rescue",
      "outputs": [],
      "stateMutability": "payable",
      "type": "function",
      "payable": true
    }
  ],
  "bytecode": "0x6080604052620151806003553480156200001857600080fd5b5060405162001b3b38038062001b3b8339810160408190526200003b91620000e5565b620000463362000078565b600180546001600160a01b039384166001600160a01b031991821617909155600280549290931691161790556200011d565b600080546001600160a01b038381166001600160a01b0319831681178455604051919092169283917f8be0079c531659141344cd1fd0a4f28419497f9722a3daafe3b4186f6b6457e09190a35050565b80516001600160a01b0381168114620000e057600080fd5b919050565b60008060408385031215620000f957600080fd5b6200010483620000c8565b91506200011460208401620000c8565b90509250929050565b611a0e806200012d6000396000f3fe6080604052600436106101085760003560e01c8063893d20e811610095578063b2a0616411610064578063b2a06164146102d4578063bc2f2dcf146102f2578063de63b2cf14610312578063e140841014610342578063f2fde38b1461036257600080fd5b8063893d20e81461025b5780638aee8127146102795780638da5cb5b1461025b578063ab7ac9f51461029957600080fd5b80632e1a7d4d116100dc5780632e1a7d4d146101b45780632f37acdb146101d457806369940d79146101f4578063715018a6146102265780637b0472f01461023b57600080fd5b80628f33d71461010d57806311367c2d146101405780631e8754f9146101955780631fbe1979146101aa575b600080fd5b34801561011957600080fd5b5061012d61012836600461179a565b610382565b6040519081526020015b60405180910390f35b34801561014c57600080fd5b5061016061015b366004611768565b610395565b604080519788526020880196909652948601939093526060850191909152608084015260a083015260c082015260e001610137565b3480156101a157600080fd5b5060045461012d565b6101b26104e9565b005b3480156101c057600080fd5b506101b26101cf366004611768565b61055c565b3480156101e057600080fd5b506101b26101ef36600461172b565b61099c565b34801561020057600080fd5b506002546001600160a01b03165b6040516001600160a01b039091168152602001610137565b34801561023257600080fd5b506101b2610ae8565b34801561024757600080fd5b506101b26102563660046117c6565b610b1e565b34801561026757600080fd5b506000546001600160a01b031661020e565b34801561028557600080fd5b506101b261029436600461172b565b610ead565b3480156102a557600080fd5b506102b96102b436600461179a565b610f1f565b60408051938452602084019290925290820152606001610137565b3480156102e057600080fd5b506001546001600160a01b031661020e565b3480156102fe57600080fd5b506101b261030d36600461172b565b610f89565b34801561031e57600080fd5b5061033261032d366004611768565b610ffb565b6040519015158152602001610137565b34801561034e57600080fd5b506101b261035d3660046117e8565b61107c565b34801561036e57600080fd5b506101b261037d36600461172b565b611435565b600061038e83836114d0565b9392505050565b600080600080600080600060048054905088106103cd5760405162461bcd60e51b81526004016103c4906118a6565b60405180910390fd5b600488815481106103e0576103e06119c2565b90600052602060002090600702016000015460048981548110610405576104056119c2565b90600052602060002090600702016001015460048a8154811061042a5761042a6119c2565b90600052602060002090600702016002015460048b8154811061044f5761044f6119c2565b90600052602060002090600702016003015460048c81548110610474576104746119c2565b90600052602060002090600702016004015460048d81548110610499576104996119c2565b90600052602060002090600702016005015460048e815481106104be576104be6119c2565b9060005260206000209060070201600601549650965096509650965096509650919395979092949650565b6000546001600160a01b031633146105135760405162461bcd60e51b81526004016103c4906118e7565b600080546001600160a01b03166040519091506001600160a01b038216904780156108fc02916000818181858888f19350505050158015610558573d6000803e3d6000fd5b5050565b600454811061057d5760405162461bcd60e51b81526004016103c4906118a6565b60048181548110610590576105906119c2565b90600052602060002090600702016001015442116105c05760405162461bcd60e51b81526004016103c490611814565b6105ca81336114d0565b6002546040516370a0823160e01b81523060048201526001600160a01b03909116906370a082319060240160206040518083038186803b15801561060d57600080fd5b505afa158015610621573d6000803e3d6000fd5b505050506040513d601f19601f820116820180604052508101906106459190611781565b10156106b15760405162461bcd60e51b815260206004820152603560248201527f4554425374616b696e673a206e6f7420656e6f7567682062616c616e6365206660448201527437b9103932bbb0b932102122a81918103a37b5b2b760591b60648201526084016103c4565b6000818152600560209081526040808320338452909152902080546107185760405162461bcd60e51b815260206004820152601b60248201527f4554425374616b696e673a204e6f74207374616b65686f6c646572000000000060448201526064016103c4565b60008160010154116107775760405162461bcd60e51b815260206004820152602260248201527f4554425374616b696e673a205573657220616c726561647920776974686472616044820152613bb760f11b60648201526084016103c4565b6001810154600061078884336114d0565b60015460405163a9059cbb60e01b8152336004820152602481018590529192506001600160a01b03169063a9059cbb90604401602060405180830381600087803b1580156107d557600080fd5b505af11580156107e9573d6000803e3d6000fd5b505050506040513d601f19601f8201168201806040525081019061080d9190611746565b5060025460405163a9059cbb60e01b8152336004820152602481018390526001600160a01b039091169063a9059cbb90604401602060405180830381600087803b15801561085a57600080fd5b505af115801561086e573d6000803e3d6000fd5b505050506040513d601f19601f820116820180604052508101906108929190611746565b5082546004805460019190879081106108ad576108ad6119c2565b906000526020600020906007020160040160008282546108cd919061197f565b9091555050600184015460048054879081106108eb576108eb6119c2565b9060005260206000209060070201600301600082825461090b919061197f565b925050819055508160048681548110610926576109266119c2565b90600052602060002090600702016005016000828254610946919061197f565b90915550506000808555600185015560408051838152602081018390528491339188917f30011545efcd097ee25dae81386c1513acbd42b2af85ac6caae1a3b7d519336691015b60405180910390a45050505050565b6000546001600160a01b031633146109c65760405162461bcd60e51b81526004016103c4906118e7565b6040516370a0823160e01b81523060048201526000906001600160a01b038316906370a082319060240160206040518083038186803b158015610a0857600080fd5b505afa158015610a1c573d6000803e3d6000fd5b505050506040513d601f19601f82011682018060405250810190610a409190611781565b9050816001600160a01b031663a9059cbb610a636000546001600160a01b031690565b6040516001600160e01b031960e084901b1681526001600160a01b03909116600482015260248101849052604401602060405180830381600087803b158015610aab57600080fd5b505af1158015610abf573d6000803e3d6000fd5b505050506040513d601f19601f82011682018060405250810190610ae39190611746565b505050565b6000546001600160a01b03163314610b125760405162461bcd60e51b81526004016103c4906118e7565b610b1c6000611632565b565b60008111610b6e5760405162461bcd60e51b815260206004820152601d60248201527f4554425374616b696e673a207374616b65206d757374206265203e203000000060448201526064016103c4565b6004548210610b8f5760405162461bcd60e51b81526004016103c4906118a6565b60048281548110610ba257610ba26119c2565b9060005260206000209060070201600101544211610bd25760405162461bcd60e51b81526004016103c490611814565b60048281548110610be557610be56119c2565b906000526020600020906007020160020154421115610c465760405162461bcd60e51b815260206004820152601960248201527f4554425374616b696e673a207374616b696e6720656e6465640000000000000060448201526064016103c4565b6001546040516370a0823160e01b815233600482015282916001600160a01b0316906370a082319060240160206040518083038186803b158015610c8957600080fd5b505afa158015610c9d573d6000803e3d6000fd5b505050506040513d601f19601f82011682018060405250810190610cc19190611781565b1015610cdf5760405162461bcd60e51b81526004016103c49061191c565b60008281526005602090815260408083203384529091529020805415610d585760405162461bcd60e51b815260206004820152602860248201527f4554425374616b696e673a205573657220616c726561647920696e207374616b6044820152671a5b99c81c1bdbdb60c21b60648201526084016103c4565b6001546040516323b872dd60e01b8152336004820152306024820152604481018490526001600160a01b03909116906323b872dd90606401602060405180830381600087803b158015610daa57600080fd5b505af1158015610dbe573d6000803e3d6000fd5b505050506040513d601f19601f82011682018060405250810190610de29190611746565b50428155600181018054839190600090610dfd908490611967565b92505081905550600160048481548110610e1957610e196119c2565b90600052602060002090600702016004016000828254610e399190611967565b925050819055508160048481548110610e5457610e546119c2565b90600052602060002090600702016003016000828254610e749190611967565b90915550506040518290339085907f02567b2553aeb44e4ddd5d68462774dc3de158cb0f2c2da1740e729b22086aff90600090a4505050565b6000546001600160a01b03163314610ed75760405162461bcd60e51b81526004016103c4906118e7565b6001600160a01b038116610efd5760405162461bcd60e51b81526004016103c490611856565b600280546001600160a01b0319166001600160a01b0392909216919091179055565b60008060006004805490508510610f485760405162461bcd60e51b81526004016103c4906118a6565b60008581526005602090815260408083206001600160a01b0388168452909152902080546001820154610f7b88886114d0565b935093509350509250925092565b6000546001600160a01b03163314610fb35760405162461bcd60e51b81526004016103c4906118e7565b6001600160a01b038116610fd95760405162461bcd60e51b81526004016103c490611856565b600180546001600160a01b0319166001600160a01b0392909216919091179055565b600454600090821061101f5760405162461bcd60e51b81526004016103c4906118a6565b60048281548110611032576110326119c2565b90600052602060002090600702016001015442118015611076575060048281548110611060576110606119c2565b9060005260206000209060070201600201544211155b92915050565b6000546001600160a01b031633146110a65760405162461bcd60e51b81526004016103c4906118e7565b600083116110f65760405162461bcd60e51b815260206004820152601e60248201527f4554425374616b696e673a20726577617264206d757374206265203e2030000060448201526064016103c4565b81811161115d5760405162461bcd60e51b815260206004820152602f60248201527f4554425374616b696e673a20737461727454696d65206d757374206265206c6560448201526e7373207468656e20656e6454496d6560881b60648201526084016103c4565b6002546040516370a0823160e01b815233600482015284916001600160a01b0316906370a082319060240160206040518083038186803b1580156111a057600080fd5b505afa1580156111b4573d6000803e3d6000fd5b505050506040513d601f19601f820116820180604052508101906111d89190611781565b10156111f65760405162461bcd60e51b81526004016103c49061191c565b6002546040516323b872dd60e01b8152336004820152306024820152604481018590526001600160a01b03909116906323b872dd90606401602060405180830381600087803b15801561124857600080fd5b505af115801561125c573d6000803e3d6000fd5b505050506040513d601f19601f820116820180604052508101906112809190611746565b506000611298611290848461197f565b600354611682565b91505060006112a78583611682565b6040805160e08101825288815260208082018981528284018981526000606085018181526080860182815260a087018f815260c088018a8152600480546001810182559581905298517f8a35acfbc15ff81a39ae7d344fd709f28e8600b4aa8c65c6b64bfe7fe36bd19b60079096029586015595517f8a35acfbc15ff81a39ae7d344fd709f28e8600b4aa8c65c6b64bfe7fe36bd19c85015593517f8a35acfbc15ff81a39ae7d344fd709f28e8600b4aa8c65c6b64bfe7fe36bd19d84015590517f8a35acfbc15ff81a39ae7d344fd709f28e8600b4aa8c65c6b64bfe7fe36bd19e830155517f8a35acfbc15ff81a39ae7d344fd709f28e8600b4aa8c65c6b64bfe7fe36bd19f82015590517f8a35acfbc15ff81a39ae7d344fd709f28e8600b4aa8c65c6b64bfe7fe36bd1a082015590517f8a35acfbc15ff81a39ae7d344fd709f28e8600b4aa8c65c6b64bfe7fe36bd1a1909101559054915189815292945086935087927f2f63014cff23f93c6d690103928ff100fc60cd79062c6ea90beae9d002cff323910161098d565b6000546001600160a01b0316331461145f5760405162461bcd60e51b81526004016103c4906118e7565b6001600160a01b0381166114c45760405162461bcd60e51b815260206004820152602660248201527f4f776e61626c653a206e6577206f776e657220697320746865207a65726f206160448201526564647265737360d01b60648201526084016103c4565b6114cd81611632565b50565b60045460009083106114f45760405162461bcd60e51b81526004016103c4906118a6565b60008381526005602090815260408083206001600160a01b0386168452909152902080546115645760405162461bcd60e51b815260206004820152601b60248201527f4554425374616b696e673a204e6f74207374616b65686f6c646572000000000060448201526064016103c4565b6000611594426004878154811061157d5761157d6119c2565b9060005260206000209060070201600201546116b3565b905060006115ab836000015483611290919061197f565b91505060006115e28460010154600489815481106115cb576115cb6119c2565b906000526020600020906007020160030154611682565b9150506000611615600489815481106115fd576115fd6119c2565b906000526020600020906007020160060154836116c9565b915050600061162484836116c9565b9a9950505050505050505050565b600080546001600160a01b038381166001600160a01b0319831681178455604051919092169283917f8be0079c531659141344cd1fd0a4f28419497f9722a3daafe3b4186f6b6457e09190a35050565b60008082611695575060009050806116ac565b60018385816116a6576116a66119ac565b04915091505b9250929050565b60008183106116c2578161038e565b5090919050565b600080836116dd57506001905060006116ac565b838302838582816116f0576116f06119ac565b04146117035760008092509250506116ac565b60019590945092505050565b80356001600160a01b038116811461172657600080fd5b919050565b60006020828403121561173d57600080fd5b61038e8261170f565b60006020828403121561175857600080fd5b8151801515811461038e57600080fd5b60006020828403121561177a57600080fd5b5035919050565b60006020828403121561179357600080fd5b5051919050565b600080604083850312156117ad57600080fd5b823591506117bd6020840161170f565b90509250929050565b600080604083850312156117d957600080fd5b50508035926020909101359150565b6000806000606084860312156117fd57600080fd5b505081359360208301359350604090920135919050565b60208082526022908201527f4554425374616b696e673a207374616b696e67206e6f74207374617265642079604082015261195d60f21b606082015260800190565b60208082526030908201527f4554425374616b696e673a20737570706f72746564546f6b656e2063616e277460408201526f206265207a65726f206164647265737360801b606082015260800190565b60208082526021908201527f4554425374616b696e673a2077726f6e67206e756d626572206f6620737461676040820152606560f81b606082015260800190565b6020808252818101527f4f776e61626c653a2063616c6c6572206973206e6f7420746865206f776e6572604082015260600190565b6020808252602b908201527f4554425374616b696e673a206e6f7420656e6f7567682072657175697265642060408201526a2122a81918103a37b5b2b760a91b606082015260800190565b6000821982111561197a5761197a611996565b500190565b60008282101561199157611991611996565b500390565b634e487b7160e01b600052601160045260246000fd5b634e487b7160e01b600052601260045260246000fd5b634e487b7160e01b600052603260045260246000fdfea2646970667358221220396a9a8c83b12b199234a405d815dae39e664dca3bb76bd0c1c4a5ec2e94eecb64736f6c63430008070033",
  "immutableReferences": {},
  "source": "// SPDX-License-Identifier: MIT\n\npragma solidity ^0.8.7;\n\nimport \"./utils/IBEP20/IBEP20.sol\";\nimport \"@openzeppelin/contracts/utils/math/SafeMath.sol\";\nimport \"@openzeppelin/contracts/utils/math/Math.sol\";\nimport \"@openzeppelin/contracts/access/Ownable.sol\";\n\ncontract ETBStaking is Ownable {\n    using SafeMath for uint256;\n\n    struct HolderInfo {\n        uint256 _depositTime;\n        uint256 _amount;\n    }\n\n    struct StakingStage {\n        uint256 _reward;\n        uint256 _startTime;\n        uint256 _endTime;\n        uint256 _tokens;\n        uint256 _holders;\n        uint256 _balance;\n        uint256 _rewardPerDay;\n    }\n\n    event Stake(\n        uint256 indexed _stage,\n        address indexed _user,\n        uint256 indexed _amount\n    );\n\n    event StakingStageCreated(\n        uint256 indexed _stage,\n        uint256 indexed _startTime,\n        uint256 indexed _endTime,\n        uint256 _reward\n    );\n\n    event Withdraw(\n        uint256 indexed _stage,\n        address indexed _user,\n        uint256 indexed _amount,\n        uint256 _reward,\n        uint256 _depositTime\n    );\n\n    address internal _tokenForStaking;\n    address internal _rewardToken;\n\n    uint256 internal _daySeconds = 1 days;\n\n    StakingStage[] private _stakingStages;\n\n    mapping(uint256 => mapping(address => HolderInfo)) _stagesStakeHolders;\n\n    constructor(\n        address tokenForStaking,\n        address rewardToken) {\n        _tokenForStaking = tokenForStaking;\n        _rewardToken = rewardToken;\n    }\n\n    function addStakeStage(uint256 reward, uint256 startTime, uint256 endTime) external onlyOwner {\n        require(reward > 0, \"ETBStaking: reward must be > 0\");\n        require(endTime > startTime, \"ETBStaking: startTime must be less then endTIme\");\n        require(IBEP20(_rewardToken).balanceOf(msg.sender) >= reward, 'ETBStaking: not enough required BEP20 token');\n\n        IBEP20(_rewardToken).transferFrom(\n            address(msg.sender),\n            address(this),\n            reward\n        );\n\n        (, uint256 stakingDurationDays) = SafeMath.tryDiv(endTime - startTime, _daySeconds);\n        (, uint256 rewardPerDay) = SafeMath.tryDiv(reward, stakingDurationDays);\n        _stakingStages.push(StakingStage({\n            _reward : reward,\n            _startTime : startTime,\n            _endTime : endTime,\n            _tokens : 0,\n            _holders : 0,\n            _balance : reward,\n            _rewardPerDay : rewardPerDay\n            }));\n\n\n        emit StakingStageCreated(\n            _stakingStages.length,\n            startTime,\n            endTime,\n            reward\n        );\n    }\n\n    function stake(uint256 stage, uint256 value) external {\n        require(value > 0, 'ETBStaking: stake must be > 0');\n        require(stage < _stakingStages.length, 'ETBStaking: wrong number of stage');\n        require(block.timestamp > _stakingStages[stage]._startTime, 'ETBStaking: staking not stared yet');\n        require(block.timestamp <= _stakingStages[stage]._endTime, 'ETBStaking: staking ended');\n        require(IBEP20(_tokenForStaking).balanceOf(msg.sender) >= value, 'ETBStaking: not enough required BEP20 token');\n        HolderInfo storage stakeHolder = _stagesStakeHolders[stage][msg.sender];\n        require(stakeHolder._depositTime == 0, \"ETBStaking: User already in staking pool\");\n\n        IBEP20(_tokenForStaking).transferFrom(\n            address(msg.sender),\n            address(this),\n            value\n        );\n\n        stakeHolder._depositTime = block.timestamp;\n        stakeHolder._amount += value;\n\n        _stakingStages[stage]._holders += 1;\n        _stakingStages[stage]._tokens += value;\n\n        emit Stake({\n            _stage : stage,\n            _user : msg.sender,\n            _amount : value\n            }\n        );\n    }\n\n    function withdraw(uint256 stage) external {\n        require(stage < _stakingStages.length, 'ETBStaking: wrong number of stage');\n        require(block.timestamp > _stakingStages[stage]._startTime, 'ETBStaking: staking not stared yet');\n        require(IBEP20(_rewardToken).balanceOf(address(this)) >= _calculateReward(stage, msg.sender), 'ETBStaking: not enough balance for reward BEP20 token');\n        HolderInfo storage stakeHolder = _stagesStakeHolders[stage][msg.sender];\n        require(stakeHolder._depositTime > 0, \"ETBStaking: Not stakeholder\");\n        require(stakeHolder._amount > 0, \"ETBStaking: User already withdrawn\");\n\n        uint256 value = stakeHolder._amount;\n        uint256 reward = _calculateReward(stage, msg.sender);\n\n        IBEP20(_tokenForStaking).transfer(address(msg.sender), value);\n        IBEP20(_rewardToken).transfer(address(msg.sender), reward);\n\n        uint256 depositTime = stakeHolder._depositTime;\n\n        _stakingStages[stage]._holders -= 1;\n        _stakingStages[stage]._tokens -= stakeHolder._amount;\n        _stakingStages[stage]._balance -= reward;\n\n        stakeHolder._depositTime = 0;\n        stakeHolder._amount = 0;\n\n        emit Withdraw({\n            _stage : stage,\n            _user : msg.sender,\n            _amount : value,\n            _reward : reward,\n            _depositTime : depositTime\n            });\n    }\n\n    function getReward(uint256 stage, address holderAddress) external view returns (uint256) {\n        return _calculateReward(stage, holderAddress);\n    }\n\n    function _calculateReward(uint256 stage, address holderAddress) internal view returns (uint256) {\n        require(stage < _stakingStages.length, 'ETBStaking: wrong number of stage');\n\n        HolderInfo storage stakeHolder = _stagesStakeHolders[stage][holderAddress];\n        require(stakeHolder._depositTime > 0, \"ETBStaking: Not stakeholder\");\n\n        //max end time for reward\n        uint256 current = Math.min(block.timestamp, _stakingStages[stage]._endTime);\n\n        //duration of holding\n        (,uint256  holderDurationDay) = SafeMath.tryDiv(current - stakeHolder._depositTime, _daySeconds);\n        //poolWeight\n        (,uint256  poolWeight) = SafeMath.tryDiv(stakeHolder._amount, _stakingStages[stage]._tokens);\n\n        //calc rewardPerDay * poolWeight\n        (,uint256  rewardRate) = SafeMath.tryMul(_stakingStages[stage]._rewardPerDay, poolWeight);\n        //bonus by days\n        (,uint256  reward) = SafeMath.tryMul(holderDurationDay, rewardRate);\n\n        return reward;\n    }\n\n    function isStackingStageIsActive(uint256 stage) external view returns (bool) {\n        require(stage < _stakingStages.length, 'ETBStaking: wrong number of stage');\n        return block.timestamp > _stakingStages[stage]._startTime && block.timestamp <= _stakingStages[stage]._endTime;\n    }\n\n    function getStackingStagesLength() external view returns (uint256) {\n        return _stakingStages.length;\n    }\n\n    function getStackingStage(uint256 stage) external view returns (uint256, uint256, uint256, uint256, uint256, uint256, uint256) {\n        require(stage < _stakingStages.length, 'ETBStaking: wrong number of stage');\n        return (\n        _stakingStages[stage]._reward,\n        _stakingStages[stage]._startTime,\n        _stakingStages[stage]._endTime,\n        _stakingStages[stage]._tokens,\n        _stakingStages[stage]._holders,\n        _stakingStages[stage]._balance,\n        _stakingStages[stage]._rewardPerDay\n        );\n    }\n\n    function getHolderInfo(uint256 stage, address holderAddress) external view returns (uint256, uint256, uint256) {\n        require(stage < _stakingStages.length, 'ETBStaking: wrong number of stage');\n        HolderInfo storage holder = _stagesStakeHolders[stage][holderAddress];\n        return (\n        holder._depositTime,\n        holder._amount,\n        _calculateReward(stage, holderAddress)\n        );\n    }\n\n    function setRewardToken(address rewardToken) external onlyOwner {\n        require(rewardToken != address(0), 'ETBStaking: supportedToken can\\'t be zero address');\n        _rewardToken = rewardToken;\n    }\n\n    function setSupportedToken(address supportedToken) external onlyOwner {\n        require(supportedToken != address(0), 'ETBStaking: supportedToken can\\'t be zero address');\n        _tokenForStaking = supportedToken;\n    }\n\n    function getRewardToken() external view returns (address) {\n        return _rewardToken;\n    }\n\n    function getSupportedToken() external view returns (address) {\n        return _tokenForStaking;\n    }\n\n    function getOwner() external view returns (address) {\n        return owner();\n    }\n\n    function rescueBEP20(address token) external onlyOwner {\n        uint256 amt = IBEP20(token).balanceOf(address(this));\n        IBEP20(token).transfer(owner(), amt);\n    }\n\n    function rescue() external payable onlyOwner {\n        address payable addressOwner = payable(address(owner()));\n        addressOwner.transfer(address(this).balance);\n    }\n}",
  "sourcePath": "/Users/marcinlucko/Praca/projects/etb-project2/backend/contracts/ETBStaking.sol",
  "compiler": {
    "name": "solc",
    "version": "0.8.7+commit.e28d00a7.Emscripten.clang"
  },
  "schemaVersion": "3.3.4",
  "updatedAt": "2021-09-01T17:47:40.184Z",
  "networkType": "ethereum",
  "devdoc": {
    "kind": "dev",
    "methods": {
      "owner()": {
        "details": "Returns the address of the current owner."
      },
      "renounceOwnership()": {
        "details": "Leaves the contract without owner. It will not be possible to call `onlyOwner` functions anymore. Can only be called by the current owner. NOTE: Renouncing ownership will leave the contract without an owner, thereby removing any functionality that is only available to the owner."
      },
      "transferOwnership(address)": {
        "details": "Transfers ownership of the contract to a new account (`newOwner`). Can only be called by the current owner."
      }
    },
    "version": 1
  },
  "userdoc": {
    "kind": "user",
    "methods": {},
    "version": 1
  }
}