{
  "contractName": "ETBStaking",
  "abi": [
    {
      "inputs": [
        {
          "internalType": "address",
          "name": "tokenForStaking",
          "type": "address"
        },
        {
          "internalType": "address",
          "name": "rewardToken",
          "type": "address"
        }
      ],
      "stateMutability": "nonpayable",
      "type": "constructor"
    },
    {
      "anonymous": false,
      "inputs": [
        {
          "indexed": true,
          "internalType": "address",
          "name": "previousOwner",
          "type": "address"
        },
        {
          "indexed": true,
          "internalType": "address",
          "name": "newOwner",
          "type": "address"
        }
      ],
      "name": "OwnershipTransferred",
      "type": "event"
    },
    {
      "anonymous": false,
      "inputs": [
        {
          "indexed": true,
          "internalType": "uint256",
          "name": "_stage",
          "type": "uint256"
        },
        {
          "indexed": true,
          "internalType": "address",
          "name": "_user",
          "type": "address"
        },
        {
          "indexed": true,
          "internalType": "uint256",
          "name": "_amount",
          "type": "uint256"
        }
      ],
      "name": "Stake",
      "type": "event"
    },
    {
      "anonymous": false,
      "inputs": [
        {
          "indexed": true,
          "internalType": "uint256",
          "name": "_stage",
          "type": "uint256"
        },
        {
          "indexed": true,
          "internalType": "uint256",
          "name": "_startTime",
          "type": "uint256"
        },
        {
          "indexed": true,
          "internalType": "uint256",
          "name": "_endTime",
          "type": "uint256"
        },
        {
          "indexed": false,
          "internalType": "uint256",
          "name": "_reward",
          "type": "uint256"
        }
      ],
      "name": "StakingStageCreated",
      "type": "event"
    },
    {
      "anonymous": false,
      "inputs": [
        {
          "indexed": true,
          "internalType": "uint256",
          "name": "_stage",
          "type": "uint256"
        },
        {
          "indexed": true,
          "internalType": "address",
          "name": "_user",
          "type": "address"
        },
        {
          "indexed": true,
          "internalType": "uint256",
          "name": "_amount",
          "type": "uint256"
        },
        {
          "indexed": false,
          "internalType": "uint256",
          "name": "_reward",
          "type": "uint256"
        },
        {
          "indexed": false,
          "internalType": "uint256",
          "name": "_depositTime",
          "type": "uint256"
        }
      ],
      "name": "Withdraw",
      "type": "event"
    },
    {
      "inputs": [],
      "name": "owner",
      "outputs": [
        {
          "internalType": "address",
          "name": "",
          "type": "address"
        }
      ],
      "stateMutability": "view",
      "type": "function",
      "constant": true
    },
    {
      "inputs": [],
      "name": "renounceOwnership",
      "outputs": [],
      "stateMutability": "nonpayable",
      "type": "function"
    },
    {
      "inputs": [
        {
          "internalType": "address",
          "name": "newOwner",
          "type": "address"
        }
      ],
      "name": "transferOwnership",
      "outputs": [],
      "stateMutability": "nonpayable",
      "type": "function"
    },
    {
      "inputs": [
        {
          "internalType": "uint256",
          "name": "reward",
          "type": "uint256"
        },
        {
          "internalType": "uint256",
          "name": "startTime",
          "type": "uint256"
        },
        {
          "internalType": "uint256",
          "name": "endTime",
          "type": "uint256"
        }
      ],
      "name": "addStakeStage",
      "outputs": [],
      "stateMutability": "nonpayable",
      "type": "function"
    },
    {
      "inputs": [
        {
          "internalType": "uint256",
          "name": "stage",
          "type": "uint256"
        },
        {
          "internalType": "uint256",
          "name": "value",
          "type": "uint256"
        }
      ],
      "name": "stake",
      "outputs": [],
      "stateMutability": "nonpayable",
      "type": "function"
    },
    {
      "inputs": [
        {
          "internalType": "uint256",
          "name": "stage",
          "type": "uint256"
        }
      ],
      "name": "withdraw",
      "outputs": [],
      "stateMutability": "nonpayable",
      "type": "function"
    },
    {
      "inputs": [
        {
          "internalType": "uint256",
          "name": "stage",
          "type": "uint256"
        },
        {
          "internalType": "address",
          "name": "holderAddress",
          "type": "address"
        }
      ],
      "name": "getReward",
      "outputs": [
        {
          "internalType": "uint256",
          "name": "",
          "type": "uint256"
        }
      ],
      "stateMutability": "view",
      "type": "function",
      "constant": true
    },
    {
      "inputs": [
        {
          "internalType": "uint256",
          "name": "stage",
          "type": "uint256"
        }
      ],
      "name": "isStackingStageIsActive",
      "outputs": [
        {
          "internalType": "bool",
          "name": "",
          "type": "bool"
        }
      ],
      "stateMutability": "view",
      "type": "function",
      "constant": true
    },
    {
      "inputs": [],
      "name": "getStackingStagesLength",
      "outputs": [
        {
          "internalType": "uint256",
          "name": "",
          "type": "uint256"
        }
      ],
      "stateMutability": "view",
      "type": "function",
      "constant": true
    },
    {
      "inputs": [
        {
          "internalType": "uint256",
          "name": "stage",
          "type": "uint256"
        }
      ],
      "name": "getStackingStage",
      "outputs": [
        {
          "internalType": "uint256",
          "name": "",
          "type": "uint256"
        },
        {
          "internalType": "uint256",
          "name": "",
          "type": "uint256"
        },
        {
          "internalType": "uint256",
          "name": "",
          "type": "uint256"
        },
        {
          "internalType": "uint256",
          "name": "",
          "type": "uint256"
        },
        {
          "internalType": "uint256",
          "name": "",
          "type": "uint256"
        }
      ],
      "stateMutability": "view",
      "type": "function",
      "constant": true
    },
    {
      "inputs": [
        {
          "internalType": "uint256",
          "name": "stage",
          "type": "uint256"
        },
        {
          "internalType": "address",
          "name": "holderAddress",
          "type": "address"
        }
      ],
      "name": "getHolderInfo",
      "outputs": [
        {
          "internalType": "uint256",
          "name": "",
          "type": "uint256"
        },
        {
          "internalType": "uint256",
          "name": "",
          "type": "uint256"
        },
        {
          "internalType": "uint256",
          "name": "",
          "type": "uint256"
        }
      ],
      "stateMutability": "view",
      "type": "function",
      "constant": true
    },
    {
      "inputs": [
        {
          "internalType": "address",
          "name": "rewardToken",
          "type": "address"
        }
      ],
      "name": "setRewardToken",
      "outputs": [],
      "stateMutability": "nonpayable",
      "type": "function"
    },
    {
      "inputs": [
        {
          "internalType": "address",
          "name": "supportedToken",
          "type": "address"
        }
      ],
      "name": "setSupportedToken",
      "outputs": [],
      "stateMutability": "nonpayable",
      "type": "function"
    },
    {
      "inputs": [],
      "name": "getRewardToken",
      "outputs": [
        {
          "internalType": "address",
          "name": "",
          "type": "address"
        }
      ],
      "stateMutability": "view",
      "type": "function",
      "constant": true
    },
    {
      "inputs": [],
      "name": "getSupportedToken",
      "outputs": [
        {
          "internalType": "address",
          "name": "",
          "type": "address"
        }
      ],
      "stateMutability": "view",
      "type": "function",
      "constant": true
    },
    {
      "inputs": [],
      "name": "getOwner",
      "outputs": [
        {
          "internalType": "address",
          "name": "",
          "type": "address"
        }
      ],
      "stateMutability": "view",
      "type": "function",
      "constant": true
    },
    {
      "inputs": [
        {
          "internalType": "address",
          "name": "token",
          "type": "address"
        }
      ],
      "name": "rescueBEP20",
      "outputs": [],
      "stateMutability": "nonpayable",
      "type": "function"
    },
    {
      "inputs": [],
      "name": "rescue",
      "outputs": [],
      "stateMutability": "payable",
      "type": "function",
      "payable": true
    }
  ],
  "bytecode": "0x60806040523480156200001157600080fd5b5060405162001867380380620018678339810160408190526200003491620000de565b6200003f3362000071565b600180546001600160a01b039384166001600160a01b0319918216179091556002805492909316911617905562000116565b600080546001600160a01b038381166001600160a01b0319831681178455604051919092169283917f8be0079c531659141344cd1fd0a4f28419497f9722a3daafe3b4186f6b6457e09190a35050565b80516001600160a01b0381168114620000d957600080fd5b919050565b60008060408385031215620000f257600080fd5b620000fd83620000c1565b91506200010d60208401620000c1565b90509250929050565b61174180620001266000396000f3fe6080604052600436106101085760003560e01c8063893d20e811610095578063b2a0616411610064578063b2a06164146102c7578063bc2f2dcf146102e5578063de63b2cf14610305578063e140841014610335578063f2fde38b1461035557600080fd5b8063893d20e81461024e5780638aee81271461026c5780638da5cb5b1461024e578063ab7ac9f51461028c57600080fd5b80632e1a7d4d116100dc5780632e1a7d4d146101a75780632f37acdb146101c757806369940d79146101e7578063715018a6146102195780637b0472f01461022e57600080fd5b80628f33d71461010d57806311367c2d146101405780631e8754f9146101885780631fbe19791461019d575b600080fd5b34801561011957600080fd5b5061012d6101283660046114e3565b610375565b6040519081526020015b60405180910390f35b34801561014c57600080fd5b5061016061015b3660046114b1565b610388565b604080519586526020860194909452928401919091526060830152608082015260a001610137565b34801561019457600080fd5b5060035461012d565b6101a5610489565b005b3480156101b357600080fd5b506101a56101c23660046114b1565b6104fc565b3480156101d357600080fd5b506101a56101e2366004611474565b610900565b3480156101f357600080fd5b506002546001600160a01b03165b6040516001600160a01b039091168152602001610137565b34801561022557600080fd5b506101a5610a4c565b34801561023a57600080fd5b506101a561024936600461150f565b610a82565b34801561025a57600080fd5b506000546001600160a01b0316610201565b34801561027857600080fd5b506101a5610287366004611474565b610e11565b34801561029857600080fd5b506102ac6102a73660046114e3565b610e83565b60408051938452602084019290925290820152606001610137565b3480156102d357600080fd5b506001546001600160a01b0316610201565b3480156102f157600080fd5b506101a5610300366004611474565b610eed565b34801561031157600080fd5b506103256103203660046114b1565b610f5f565b6040519015158152602001610137565b34801561034157600080fd5b506101a5610350366004611531565b610fe0565b34801561036157600080fd5b506101a5610370366004611474565b611320565b600061038183836113bb565b9392505050565b600080600080600060038054905086106103bd5760405162461bcd60e51b81526004016103b4906115ef565b60405180910390fd5b600386815481106103d0576103d06116f5565b906000526020600020906005020160000154600387815481106103f5576103f56116f5565b9060005260206000209060050201600101546003888154811061041a5761041a6116f5565b9060005260206000209060050201600201546003898154811061043f5761043f6116f5565b90600052602060002090600502016003015460038a81548110610464576104646116f5565b9060005260206000209060050201600401549450945094509450945091939590929450565b6000546001600160a01b031633146104b35760405162461bcd60e51b81526004016103b490611630565b600080546001600160a01b03166040519091506001600160a01b038216904780156108fc02916000818181858888f193505050501580156104f8573d6000803e3d6000fd5b5050565b600354811061051d5760405162461bcd60e51b81526004016103b4906115ef565b60038181548110610530576105306116f5565b90600052602060002090600502016001015442116105605760405162461bcd60e51b81526004016103b49061155d565b61056a81336113bb565b6002546040516370a0823160e01b81523060048201526001600160a01b03909116906370a082319060240160206040518083038186803b1580156105ad57600080fd5b505afa1580156105c1573d6000803e3d6000fd5b505050506040513d601f19601f820116820180604052508101906105e591906114ca565b10156106515760405162461bcd60e51b815260206004820152603560248201527f4554425374616b696e673a206e6f7420656e6f7567682062616c616e6365206660448201527437b9103932bbb0b932102122a81918103a37b5b2b760591b60648201526084016103b4565b6000818152600460209081526040808320338452909152902080546106b85760405162461bcd60e51b815260206004820152601b60248201527f4554425374616b696e673a204e6f74207374616b65686f6c646572000000000060448201526064016103b4565b60008160010154116107175760405162461bcd60e51b815260206004820152602260248201527f4554425374616b696e673a205573657220616c726561647920776974686472616044820152613bb760f11b60648201526084016103b4565b6001810154600061072884336113bb565b60015460405163a9059cbb60e01b8152336004820152602481018590529192506001600160a01b03169063a9059cbb90604401602060405180830381600087803b15801561077557600080fd5b505af1158015610789573d6000803e3d6000fd5b505050506040513d601f19601f820116820180604052508101906107ad919061148f565b5060025460405163a9059cbb60e01b8152336004820152602481018390526001600160a01b039091169063a9059cbb90604401602060405180830381600087803b1580156107fa57600080fd5b505af115801561080e573d6000803e3d6000fd5b505050506040513d601f19601f82011682018060405250810190610832919061148f565b50825460038054600191908790811061084d5761084d6116f5565b9060005260206000209060050201600401600082825461086d91906116c8565b90915550506001840154600380548790811061088b5761088b6116f5565b906000526020600020906005020160030160008282546108ab91906116c8565b90915550506000808555600185015560408051838152602081018390528491339188917f30011545efcd097ee25dae81386c1513acbd42b2af85ac6caae1a3b7d5193366910160405180910390a45050505050565b6000546001600160a01b0316331461092a5760405162461bcd60e51b81526004016103b490611630565b6040516370a0823160e01b81523060048201526000906001600160a01b038316906370a082319060240160206040518083038186803b15801561096c57600080fd5b505afa158015610980573d6000803e3d6000fd5b505050506040513d601f19601f820116820180604052508101906109a491906114ca565b9050816001600160a01b031663a9059cbb6109c76000546001600160a01b031690565b6040516001600160e01b031960e084901b1681526001600160a01b03909116600482015260248101849052604401602060405180830381600087803b158015610a0f57600080fd5b505af1158015610a23573d6000803e3d6000fd5b505050506040513d601f19601f82011682018060405250810190610a47919061148f565b505050565b6000546001600160a01b03163314610a765760405162461bcd60e51b81526004016103b490611630565b610a806000611408565b565b60008111610ad25760405162461bcd60e51b815260206004820152601d60248201527f4554425374616b696e673a207374616b65206d757374206265203e203000000060448201526064016103b4565b6003548210610af35760405162461bcd60e51b81526004016103b4906115ef565b60038281548110610b0657610b066116f5565b9060005260206000209060050201600101544211610b365760405162461bcd60e51b81526004016103b49061155d565b60038281548110610b4957610b496116f5565b906000526020600020906005020160020154421115610baa5760405162461bcd60e51b815260206004820152601960248201527f4554425374616b696e673a207374616b696e6720656e6465640000000000000060448201526064016103b4565b6001546040516370a0823160e01b815233600482015282916001600160a01b0316906370a082319060240160206040518083038186803b158015610bed57600080fd5b505afa158015610c01573d6000803e3d6000fd5b505050506040513d601f19601f82011682018060405250810190610c2591906114ca565b1015610c435760405162461bcd60e51b81526004016103b490611665565b60008281526004602090815260408083203384529091529020805415610cbc5760405162461bcd60e51b815260206004820152602860248201527f4554425374616b696e673a205573657220616c726561647920696e207374616b6044820152671a5b99c81c1bdbdb60c21b60648201526084016103b4565b6001546040516323b872dd60e01b8152336004820152306024820152604481018490526001600160a01b03909116906323b872dd90606401602060405180830381600087803b158015610d0e57600080fd5b505af1158015610d22573d6000803e3d6000fd5b505050506040513d601f19601f82011682018060405250810190610d46919061148f565b50428155600181018054839190600090610d619084906116b0565b92505081905550600160038481548110610d7d57610d7d6116f5565b90600052602060002090600502016004016000828254610d9d91906116b0565b925050819055508160038481548110610db857610db86116f5565b90600052602060002090600502016003016000828254610dd891906116b0565b90915550506040518290339085907f02567b2553aeb44e4ddd5d68462774dc3de158cb0f2c2da1740e729b22086aff90600090a4505050565b6000546001600160a01b03163314610e3b5760405162461bcd60e51b81526004016103b490611630565b6001600160a01b038116610e615760405162461bcd60e51b81526004016103b49061159f565b600280546001600160a01b0319166001600160a01b0392909216919091179055565b60008060006003805490508510610eac5760405162461bcd60e51b81526004016103b4906115ef565b60008581526004602090815260408083206001600160a01b0388168452909152902080546001820154610edf88886113bb565b935093509350509250925092565b6000546001600160a01b03163314610f175760405162461bcd60e51b81526004016103b490611630565b6001600160a01b038116610f3d5760405162461bcd60e51b81526004016103b49061159f565b600180546001600160a01b0319166001600160a01b0392909216919091179055565b6003546000908210610f835760405162461bcd60e51b81526004016103b4906115ef565b60038281548110610f9657610f966116f5565b90600052602060002090600502016001015442118015610fda575060038281548110610fc457610fc46116f5565b9060005260206000209060050201600201544211155b92915050565b6000546001600160a01b0316331461100a5760405162461bcd60e51b81526004016103b490611630565b6000831161105a5760405162461bcd60e51b815260206004820152601e60248201527f4554425374616b696e673a20726577617264206d757374206265203e2030000060448201526064016103b4565b8181116110c15760405162461bcd60e51b815260206004820152602f60248201527f4554425374616b696e673a20737461727454696d65206d757374206265206c6560448201526e7373207468656e20656e6454496d6560881b60648201526084016103b4565b6002546040516370a0823160e01b815233600482015284916001600160a01b0316906370a082319060240160206040518083038186803b15801561110457600080fd5b505afa158015611118573d6000803e3d6000fd5b505050506040513d601f19601f8201168201806040525081019061113c91906114ca565b101561115a5760405162461bcd60e51b81526004016103b490611665565b6002546040516323b872dd60e01b8152336004820152306024820152604481018590526001600160a01b03909116906323b872dd90606401602060405180830381600087803b1580156111ac57600080fd5b505af11580156111c0573d6000803e3d6000fd5b505050506040513d601f19601f820116820180604052508101906111e4919061148f565b506040805160a081018252848152602080820185815282840185815260006060850181815260808601828152600380546001810182559381905296517fc2575a0e9e593c00f959f8c92f12db2869c3395a3b0502d05e2516446f71f85b60059094029384015593517fc2575a0e9e593c00f959f8c92f12db2869c3395a3b0502d05e2516446f71f85c83015591517fc2575a0e9e593c00f959f8c92f12db2869c3395a3b0502d05e2516446f71f85d82015590517fc2575a0e9e593c00f959f8c92f12db2869c3395a3b0502d05e2516446f71f85e82015590517fc2575a0e9e593c00f959f8c92f12db2869c3395a3b0502d05e2516446f71f85f90910155905491518581528392859290917f2f63014cff23f93c6d690103928ff100fc60cd79062c6ea90beae9d002cff323910160405180910390a4505050565b6000546001600160a01b0316331461134a5760405162461bcd60e51b81526004016103b490611630565b6001600160a01b0381166113af5760405162461bcd60e51b815260206004820152602660248201527f4f776e61626c653a206e6577206f776e657220697320746865207a65726f206160448201526564647265737360d01b60648201526084016103b4565b6113b881611408565b50565b60035460009083106113df5760405162461bcd60e51b81526004016103b4906115ef565b50600082815260046020908152604082206001600160a01b03841690925252620bde3192915050565b600080546001600160a01b038381166001600160a01b0319831681178455604051919092169283917f8be0079c531659141344cd1fd0a4f28419497f9722a3daafe3b4186f6b6457e09190a35050565b80356001600160a01b038116811461146f57600080fd5b919050565b60006020828403121561148657600080fd5b61038182611458565b6000602082840312156114a157600080fd5b8151801515811461038157600080fd5b6000602082840312156114c357600080fd5b5035919050565b6000602082840312156114dc57600080fd5b5051919050565b600080604083850312156114f657600080fd5b8235915061150660208401611458565b90509250929050565b6000806040838503121561152257600080fd5b50508035926020909101359150565b60008060006060848603121561154657600080fd5b505081359360208301359350604090920135919050565b60208082526022908201527f4554425374616b696e673a207374616b696e67206e6f74207374617265642079604082015261195d60f21b606082015260800190565b60208082526030908201527f4554425374616b696e673a20737570706f72746564546f6b656e2063616e277460408201526f206265207a65726f206164647265737360801b606082015260800190565b60208082526021908201527f4554425374616b696e673a2077726f6e67206e756d626572206f6620737461676040820152606560f81b606082015260800190565b6020808252818101527f4f776e61626c653a2063616c6c6572206973206e6f7420746865206f776e6572604082015260600190565b6020808252602b908201527f4554425374616b696e673a206e6f7420656e6f7567682072657175697265642060408201526a2122a81918103a37b5b2b760a91b606082015260800190565b600082198211156116c3576116c36116df565b500190565b6000828210156116da576116da6116df565b500390565b634e487b7160e01b600052601160045260246000fd5b634e487b7160e01b600052603260045260246000fdfea2646970667358221220e6d9f09f00313e33b25ca6b9c0800be2e04736f546780cdd6661b708fe79f85e64736f6c63430008070033",
  "immutableReferences": {},
  "source": "// SPDX-License-Identifier: MIT\n\npragma solidity ^0.8.7;\n\nimport \"./utils/IBEP20/IBEP20.sol\";\nimport \"@openzeppelin/contracts/utils/math/SafeMath.sol\";\nimport \"@openzeppelin/contracts/access/Ownable.sol\";\n\ncontract ETBStaking is Ownable {\n    using SafeMath for uint256;\n\n    struct HolderInfo {\n        uint256 _depositTime;\n        uint256 _amount;\n    }\n\n    struct StakingStage {\n        uint256 _reward;\n        uint256 _startTime;\n        uint256 _endTime;\n        uint256 _tokens;\n        uint256 _holders;\n    }\n\n    event Stake(\n        uint256 indexed _stage,\n        address indexed _user,\n        uint256 indexed _amount\n    );\n\n    event StakingStageCreated(\n        uint256 indexed _stage,\n        uint256 indexed _startTime,\n        uint256 indexed _endTime,\n        uint256 _reward\n    );\n\n    event Withdraw(\n        uint256 indexed _stage,\n        address indexed _user,\n        uint256 indexed _amount,\n        uint256 _reward,\n        uint256 _depositTime\n    );\n\n    address internal _tokenForStaking;\n    address internal _rewardToken;\n\n    StakingStage[] private _stakingStages;\n\n    mapping(uint256 => mapping(address => HolderInfo)) _stagesStakeHolders;\n\n    constructor(\n        address tokenForStaking,\n        address rewardToken) {\n        _tokenForStaking = tokenForStaking;\n        _rewardToken = rewardToken;\n    }\n\n    function addStakeStage(uint256 reward, uint256 startTime, uint256 endTime) external onlyOwner {\n        require(reward > 0, \"ETBStaking: reward must be > 0\");\n        require(endTime > startTime, \"ETBStaking: startTime must be less then endTIme\");\n        require(IBEP20(_rewardToken).balanceOf(msg.sender) >= reward, 'ETBStaking: not enough required BEP20 token');\n\n        IBEP20(_rewardToken).transferFrom(\n            address(msg.sender),\n            address(this),\n            reward\n        );\n\n        _stakingStages.push(StakingStage({\n            _reward : reward,\n            _startTime : startTime,\n            _endTime : endTime,\n            _tokens : 0,\n            _holders : 0\n            }));\n\n        emit StakingStageCreated(\n            _stakingStages.length,\n            startTime,\n            endTime,\n            reward\n        );\n    }\n\n    function stake(uint256 stage, uint256 value) external {\n        require(value > 0, 'ETBStaking: stake must be > 0');\n        require(stage < _stakingStages.length, 'ETBStaking: wrong number of stage');\n        require(block.timestamp > _stakingStages[stage]._startTime, 'ETBStaking: staking not stared yet');\n        require(block.timestamp <= _stakingStages[stage]._endTime, 'ETBStaking: staking ended');\n        require(IBEP20(_tokenForStaking).balanceOf(msg.sender) >= value, 'ETBStaking: not enough required BEP20 token');\n        HolderInfo storage stakeHolder = _stagesStakeHolders[stage][msg.sender];\n        require(stakeHolder._depositTime == 0, \"ETBStaking: User already in staking pool\");\n\n        IBEP20(_tokenForStaking).transferFrom(\n            address(msg.sender),\n            address(this),\n            value\n        );\n\n        stakeHolder._depositTime = block.timestamp;\n        stakeHolder._amount += value;\n\n        _stakingStages[stage]._holders += 1;\n        _stakingStages[stage]._tokens += value;\n\n        emit Stake({\n            _stage : stage,\n            _user : msg.sender,\n            _amount : value\n            }\n        );\n    }\n\n    function withdraw(uint256 stage) external {\n        require(stage < _stakingStages.length, 'ETBStaking: wrong number of stage');\n        require(block.timestamp > _stakingStages[stage]._startTime, 'ETBStaking: staking not stared yet');\n        require(IBEP20(_rewardToken).balanceOf(address(this)) >= _calculateReward(stage, msg.sender), 'ETBStaking: not enough balance for reward BEP20 token');\n        HolderInfo storage stakeHolder = _stagesStakeHolders[stage][msg.sender];\n        require(stakeHolder._depositTime > 0, \"ETBStaking: Not stakeholder\");\n        require(stakeHolder._amount > 0, \"ETBStaking: User already withdrawn\");\n\n        uint256 value = stakeHolder._amount;\n        uint256 reward = _calculateReward(stage, msg.sender);\n\n        IBEP20(_tokenForStaking).transfer(address(msg.sender), value);\n        IBEP20(_rewardToken).transfer(address(msg.sender), reward);\n\n        uint256 depositTime = stakeHolder._depositTime;\n\n        _stakingStages[stage]._holders -= 1;\n        _stakingStages[stage]._tokens -= stakeHolder._amount;\n\n        stakeHolder._depositTime = 0;\n        stakeHolder._amount = 0;\n\n        emit Withdraw({\n            _stage : stage,\n            _user : msg.sender,\n            _amount : value,\n            _reward : reward,\n            _depositTime : depositTime\n            });\n    }\n\n    function getReward(uint256 stage, address holderAddress) external view returns (uint256) {\n        return _calculateReward(stage, holderAddress);\n    }\n\n    function _calculateReward(uint256 stage, address holderAddress) internal view returns (uint256) {\n        require(stage < _stakingStages.length, 'ETBStaking: wrong number of stage');\n        HolderInfo storage holder = _stagesStakeHolders[stage][holderAddress];\n        //FIXME\n        return 777777;\n    }\n\n    function isStackingStageIsActive(uint256 stage) external view returns (bool) {\n        require(stage < _stakingStages.length, 'ETBStaking: wrong number of stage');\n        return block.timestamp > _stakingStages[stage]._startTime && block.timestamp <= _stakingStages[stage]._endTime;\n    }\n\n    function getStackingStagesLength() external view returns (uint256) {\n        return _stakingStages.length;\n    }\n\n    function getStackingStage(uint256 stage) external view returns (uint256, uint256, uint256, uint256, uint256) {\n        require(stage < _stakingStages.length, 'ETBStaking: wrong number of stage');\n        return (\n        _stakingStages[stage]._reward,\n        _stakingStages[stage]._startTime,\n        _stakingStages[stage]._endTime,\n        _stakingStages[stage]._tokens,\n        _stakingStages[stage]._holders\n        );\n    }\n\n    function getHolderInfo(uint256 stage, address holderAddress) external view returns (uint256, uint256, uint256) {\n        require(stage < _stakingStages.length, 'ETBStaking: wrong number of stage');\n        HolderInfo storage holder = _stagesStakeHolders[stage][holderAddress];\n        return (\n        holder._depositTime,\n        holder._amount,\n        _calculateReward(stage, holderAddress)\n        );\n    }\n\n    function setRewardToken(address rewardToken) external onlyOwner {\n        require(rewardToken != address(0), 'ETBStaking: supportedToken can\\'t be zero address');\n        _rewardToken = rewardToken;\n    }\n\n    function setSupportedToken(address supportedToken) external onlyOwner {\n        require(supportedToken != address(0), 'ETBStaking: supportedToken can\\'t be zero address');\n        _tokenForStaking = supportedToken;\n    }\n\n    function getRewardToken() external view returns (address) {\n        return _rewardToken;\n    }\n\n    function getSupportedToken() external view returns (address) {\n        return _tokenForStaking;\n    }\n\n    function getOwner() external view returns (address) {\n        return owner();\n    }\n\n    function rescueBEP20(address token) external onlyOwner {\n        uint256 amt = IBEP20(token).balanceOf(address(this));\n        IBEP20(token).transfer(owner(), amt);\n    }\n\n    function rescue() external payable onlyOwner {\n        address payable addressOwner = payable(address(owner()));\n        addressOwner.transfer(address(this).balance);\n    }\n}",
  "sourcePath": "/Users/marcinlucko/Praca/projects/etb-project2/backend/contracts/ETBStaking.sol",
  "compiler": {
    "name": "solc",
    "version": "0.8.7+commit.e28d00a7.Emscripten.clang"
  },
  "schemaVersion": "3.3.4",
  "updatedAt": "2021-08-31T22:48:25.631Z",
  "networkType": "ethereum",
  "devdoc": {
    "kind": "dev",
    "methods": {
      "owner()": {
        "details": "Returns the address of the current owner."
      },
      "renounceOwnership()": {
        "details": "Leaves the contract without owner. It will not be possible to call `onlyOwner` functions anymore. Can only be called by the current owner. NOTE: Renouncing ownership will leave the contract without an owner, thereby removing any functionality that is only available to the owner."
      },
      "transferOwnership(address)": {
        "details": "Transfers ownership of the contract to a new account (`newOwner`). Can only be called by the current owner."
      }
    },
    "version": 1
  },
  "userdoc": {
    "kind": "user",
    "methods": {},
    "version": 1
  }
}