{
  "contractName": "ETBStaking",
  "abi": [
    {
      "inputs": [
        {
          "internalType": "address",
          "name": "tokenForStaking",
          "type": "address"
        },
        {
          "internalType": "address",
          "name": "rewardToken",
          "type": "address"
        }
      ],
      "stateMutability": "nonpayable",
      "type": "constructor"
    },
    {
      "anonymous": false,
      "inputs": [
        {
          "indexed": true,
          "internalType": "address",
          "name": "previousOwner",
          "type": "address"
        },
        {
          "indexed": true,
          "internalType": "address",
          "name": "newOwner",
          "type": "address"
        }
      ],
      "name": "OwnershipTransferred",
      "type": "event"
    },
    {
      "inputs": [],
      "name": "owner",
      "outputs": [
        {
          "internalType": "address",
          "name": "",
          "type": "address"
        }
      ],
      "stateMutability": "view",
      "type": "function",
      "constant": true
    },
    {
      "inputs": [],
      "name": "renounceOwnership",
      "outputs": [],
      "stateMutability": "nonpayable",
      "type": "function"
    },
    {
      "inputs": [
        {
          "internalType": "address",
          "name": "newOwner",
          "type": "address"
        }
      ],
      "name": "transferOwnership",
      "outputs": [],
      "stateMutability": "nonpayable",
      "type": "function"
    },
    {
      "inputs": [
        {
          "internalType": "address",
          "name": "rewardToken",
          "type": "address"
        }
      ],
      "name": "setRewardToken",
      "outputs": [],
      "stateMutability": "nonpayable",
      "type": "function"
    },
    {
      "inputs": [
        {
          "internalType": "address",
          "name": "supportedToken",
          "type": "address"
        }
      ],
      "name": "setSupportedToken",
      "outputs": [],
      "stateMutability": "nonpayable",
      "type": "function"
    },
    {
      "inputs": [],
      "name": "getRewardToken",
      "outputs": [
        {
          "internalType": "address",
          "name": "",
          "type": "address"
        }
      ],
      "stateMutability": "view",
      "type": "function",
      "constant": true
    },
    {
      "inputs": [],
      "name": "getSupportedToken",
      "outputs": [
        {
          "internalType": "address",
          "name": "",
          "type": "address"
        }
      ],
      "stateMutability": "view",
      "type": "function",
      "constant": true
    },
    {
      "inputs": [],
      "name": "getOwner",
      "outputs": [
        {
          "internalType": "address",
          "name": "",
          "type": "address"
        }
      ],
      "stateMutability": "view",
      "type": "function",
      "constant": true
    }
  ],
  "bytecode": "0x608060405234801561001057600080fd5b506040516104fe3803806104fe83398101604081905261002f916100d5565b61003833610069565b600180546001600160a01b039384166001600160a01b03199182161790915560028054929093169116179055610108565b600080546001600160a01b038381166001600160a01b0319831681178455604051919092169283917f8be0079c531659141344cd1fd0a4f28419497f9722a3daafe3b4186f6b6457e09190a35050565b80516001600160a01b03811681146100d057600080fd5b919050565b600080604083850312156100e857600080fd5b6100f1836100b9565b91506100ff602084016100b9565b90509250929050565b6103e7806101176000396000f3fe608060405234801561001057600080fd5b50600436106100885760003560e01c80638da5cb5b1161005b5780638da5cb5b146100c0578063b2a06164146100e4578063bc2f2dcf146100f5578063f2fde38b1461010857600080fd5b806369940d791461008d578063715018a6146100b6578063893d20e8146100c05780638aee8127146100d1575b600080fd5b6002546001600160a01b03165b6040516001600160a01b03909116815260200160405180910390f35b6100be61011b565b005b6000546001600160a01b031661009a565b6100be6100df36600461034c565b61015a565b6001546001600160a01b031661009a565b6100be61010336600461034c565b6101a6565b6100be61011636600461034c565b610261565b6000546001600160a01b0316331461014e5760405162461bcd60e51b81526004016101459061037c565b60405180910390fd5b61015860006102fc565b565b6000546001600160a01b031633146101845760405162461bcd60e51b81526004016101459061037c565b600280546001600160a01b0319166001600160a01b0392909216919091179055565b6000546001600160a01b031633146101d05760405162461bcd60e51b81526004016101459061037c565b6001600160a01b03811661023f5760405162461bcd60e51b815260206004820152603060248201527f4554425374616b696e673a20737570706f72746564546f6b656e2063616e277460448201526f206265207a65726f206164647265737360801b6064820152608401610145565b600180546001600160a01b0319166001600160a01b0392909216919091179055565b6000546001600160a01b0316331461028b5760405162461bcd60e51b81526004016101459061037c565b6001600160a01b0381166102f05760405162461bcd60e51b815260206004820152602660248201527f4f776e61626c653a206e6577206f776e657220697320746865207a65726f206160448201526564647265737360d01b6064820152608401610145565b6102f9816102fc565b50565b600080546001600160a01b038381166001600160a01b0319831681178455604051919092169283917f8be0079c531659141344cd1fd0a4f28419497f9722a3daafe3b4186f6b6457e09190a35050565b60006020828403121561035e57600080fd5b81356001600160a01b038116811461037557600080fd5b9392505050565b6020808252818101527f4f776e61626c653a2063616c6c6572206973206e6f7420746865206f776e657260408201526060019056fea2646970667358221220a34e2953e4fa12b6c21ace3f53bc7192354feba5d92adf4f4f86af0b4bad759864736f6c63430008070033",
  "immutableReferences": {},
  "source": "// SPDX-License-Identifier: MIT\n\npragma solidity ^0.8.7;\n\nimport \"@openzeppelin/contracts/utils/math/SafeMath.sol\";\nimport \"@openzeppelin/contracts/access/Ownable.sol\";\n\ncontract ETBStaking is Context, Ownable {\n    using SafeMath for uint256;\n\n    address internal _tokenForStaking;\n    address internal _rewardToken;\n\n    constructor(\n        address tokenForStaking,\n        address rewardToken) {\n        _tokenForStaking = tokenForStaking;\n        _rewardToken = rewardToken;\n    }\n\n    function setRewardToken(address rewardToken) external onlyOwner {\n        _rewardToken = rewardToken;\n    }\n\n    function setSupportedToken(address supportedToken) external onlyOwner {\n        require(supportedToken != address(0), 'ETBStaking: supportedToken can\\'t be zero address');\n        _tokenForStaking = supportedToken;\n    }\n\n    function getRewardToken () external view returns (address) {\n        return _rewardToken;\n    }\n\n    function getSupportedToken() external view returns (address) {\n        return _tokenForStaking;\n    }\n\n    function getOwner() external view returns (address) {\n        return owner();\n    }\n}",
  "sourcePath": "/Users/marcinlucko/Praca/projects/etb-project2/backend/contracts/ETBStaking.sol",
  "compiler": {
    "name": "solc",
    "version": "0.8.7+commit.e28d00a7.Emscripten.clang"
  },
  "schemaVersion": "3.3.4",
  "updatedAt": "2021-08-30T19:33:30.540Z",
  "networkType": "ethereum",
  "devdoc": {
    "kind": "dev",
    "methods": {
      "owner()": {
        "details": "Returns the address of the current owner."
      },
      "renounceOwnership()": {
        "details": "Leaves the contract without owner. It will not be possible to call `onlyOwner` functions anymore. Can only be called by the current owner. NOTE: Renouncing ownership will leave the contract without an owner, thereby removing any functionality that is only available to the owner."
      },
      "transferOwnership(address)": {
        "details": "Transfers ownership of the contract to a new account (`newOwner`). Can only be called by the current owner."
      }
    },
    "version": 1
  },
  "userdoc": {
    "kind": "user",
    "methods": {},
    "version": 1
  }
}