{
  "contractName": "BEP20TokenFaucet",
  "abi": [
    {
      "inputs": [
        {
          "internalType": "address",
          "name": "tokenAddress",
          "type": "address"
        }
      ],
      "stateMutability": "nonpayable",
      "type": "constructor"
    },
    {
      "anonymous": false,
      "inputs": [
        {
          "indexed": true,
          "internalType": "address",
          "name": "previousOwner",
          "type": "address"
        },
        {
          "indexed": true,
          "internalType": "address",
          "name": "newOwner",
          "type": "address"
        }
      ],
      "name": "OwnershipTransferred",
      "type": "event"
    },
    {
      "inputs": [],
      "name": "owner",
      "outputs": [
        {
          "internalType": "address",
          "name": "",
          "type": "address"
        }
      ],
      "stateMutability": "view",
      "type": "function",
      "constant": true
    },
    {
      "inputs": [],
      "name": "renounceOwnership",
      "outputs": [],
      "stateMutability": "nonpayable",
      "type": "function"
    },
    {
      "inputs": [
        {
          "internalType": "address",
          "name": "newOwner",
          "type": "address"
        }
      ],
      "name": "transferOwnership",
      "outputs": [],
      "stateMutability": "nonpayable",
      "type": "function"
    },
    {
      "inputs": [
        {
          "internalType": "address",
          "name": "tokenAddress",
          "type": "address"
        }
      ],
      "name": "setTokenAddress",
      "outputs": [],
      "stateMutability": "nonpayable",
      "type": "function"
    },
    {
      "inputs": [],
      "name": "getTokenAddress",
      "outputs": [
        {
          "internalType": "address",
          "name": "",
          "type": "address"
        }
      ],
      "stateMutability": "view",
      "type": "function",
      "constant": true
    },
    {
      "inputs": [
        {
          "internalType": "address",
          "name": "recipient",
          "type": "address"
        },
        {
          "internalType": "uint256",
          "name": "value",
          "type": "uint256"
        }
      ],
      "name": "faucet",
      "outputs": [],
      "stateMutability": "nonpayable",
      "type": "function"
    },
    {
      "inputs": [
        {
          "internalType": "uint256",
          "name": "value",
          "type": "uint256"
        }
      ],
      "name": "recharge",
      "outputs": [],
      "stateMutability": "nonpayable",
      "type": "function"
    },
    {
      "inputs": [],
      "name": "balance",
      "outputs": [
        {
          "internalType": "uint256",
          "name": "",
          "type": "uint256"
        }
      ],
      "stateMutability": "view",
      "type": "function",
      "constant": true
    }
  ],
  "bytecode": "0x608060405234801561001057600080fd5b506040516107e63803806107e683398101604081905261002f91610116565b610038336100c6565b6001600160a01b0381166100a15760405162461bcd60e51b815260206004820152602660248201527f4245503230546f6b656e4661756365743a206d75737420626520213d2030206160448201526564647265737360d01b606482015260840160405180910390fd5b600180546001600160a01b0319166001600160a01b0392909216919091179055610146565b600080546001600160a01b038381166001600160a01b0319831681178455604051919092169283917f8be0079c531659141344cd1fd0a4f28419497f9722a3daafe3b4186f6b6457e09190a35050565b60006020828403121561012857600080fd5b81516001600160a01b038116811461013f57600080fd5b9392505050565b610691806101556000396000f3fe608060405234801561001057600080fd5b50600436106100885760003560e01c80638da5cb5b1161005b5780638da5cb5b146100e7578063b69ef8a8146100f8578063ef299b0b1461010e578063f2fde38b1461012157600080fd5b806310fe9ae81461008d57806326a4e8d2146100b7578063715018a6146100cc5780637b56c2b2146100d4575b600080fd5b6001546001600160a01b03165b6040516001600160a01b0390911681526020015b60405180910390f35b6100ca6100c5366004610586565b610134565b005b6100ca610189565b6100ca6100e23660046105a8565b6101bf565b6000546001600160a01b031661009a565b610100610314565b6040519081526020016100ae565b6100ca61011c3660046105f4565b610395565b6100ca61012f366004610586565b61047f565b6000546001600160a01b031633146101675760405162461bcd60e51b815260040161015e90610626565b60405180910390fd5b600180546001600160a01b0319166001600160a01b0392909216919091179055565b6000546001600160a01b031633146101b35760405162461bcd60e51b815260040161015e90610626565b6101bd600061051a565b565b6001600160a01b0382166102245760405162461bcd60e51b815260206004820152602660248201527f4245503230546f6b656e4661756365743a206d75737420626520213d2030206160448201526564647265737360d01b606482015260840161015e565b68056bc75e2d631000008111156102895760405162461bcd60e51b8152602060048201526024808201527f4245503230546f6b656e4661756365743a2076616c7565203c3d2031303020656044820152633a3432b960e11b606482015260840161015e565b60015460405163a9059cbb60e01b81526001600160a01b038481166004830152602482018490529091169063a9059cbb90604401602060405180830381600087803b1580156102d757600080fd5b505af11580156102eb573d6000803e3d6000fd5b505050506040513d601f19601f8201168201806040525081019061030f91906105d2565b505050565b6001546040516370a0823160e01b81523060048201526000916001600160a01b0316906370a082319060240160206040518083038186803b15801561035857600080fd5b505afa15801561036c573d6000803e3d6000fd5b505050506040513d601f19601f82011682018060405250810190610390919061060d565b905090565b600081116103f15760405162461bcd60e51b815260206004820152602360248201527f4245503230546f6b656e4661756365743a2076616c7565206d7573742062652060448201526203e20360ec1b606482015260840161015e565b6001546040516323b872dd60e01b8152336004820152306024820152604481018390526001600160a01b03909116906323b872dd90606401602060405180830381600087803b15801561044357600080fd5b505af1158015610457573d6000803e3d6000fd5b505050506040513d601f19601f8201168201806040525081019061047b91906105d2565b5050565b6000546001600160a01b031633146104a95760405162461bcd60e51b815260040161015e90610626565b6001600160a01b03811661050e5760405162461bcd60e51b815260206004820152602660248201527f4f776e61626c653a206e6577206f776e657220697320746865207a65726f206160448201526564647265737360d01b606482015260840161015e565b6105178161051a565b50565b600080546001600160a01b038381166001600160a01b0319831681178455604051919092169283917f8be0079c531659141344cd1fd0a4f28419497f9722a3daafe3b4186f6b6457e09190a35050565b80356001600160a01b038116811461058157600080fd5b919050565b60006020828403121561059857600080fd5b6105a18261056a565b9392505050565b600080604083850312156105bb57600080fd5b6105c48361056a565b946020939093013593505050565b6000602082840312156105e457600080fd5b815180151581146105a157600080fd5b60006020828403121561060657600080fd5b5035919050565b60006020828403121561061f57600080fd5b5051919050565b6020808252818101527f4f776e61626c653a2063616c6c6572206973206e6f7420746865206f776e657260408201526060019056fea26469706673582212201ab191ecc2fff427e6dff2b4f52819b2645be4844c6de7c63db9ce9aa61951cd64736f6c63430008070033",
  "immutableReferences": {},
  "source": "// SPDX-License-Identifier: MIT\n\npragma solidity ^0.8.7;\n\nimport \"./utils/IBEP20/IBEP20.sol\";\nimport \"@openzeppelin/contracts/utils/math/SafeMath.sol\";\nimport \"@openzeppelin/contracts/access/Ownable.sol\";\n\ncontract BEP20TokenFaucet is Ownable {\n    using SafeMath for uint256;\n\n    address internal _tokenAddress;\n\n    constructor(address tokenAddress) {\n        require(tokenAddress != address(0), 'BEP20TokenFaucet: must be != 0 address');\n        _tokenAddress = tokenAddress;\n    }\n\n    function setTokenAddress(address tokenAddress) onlyOwner external {\n        _tokenAddress = tokenAddress;\n    }\n\n    function getTokenAddress() external view returns (address){\n        return _tokenAddress;\n    }\n\n    function faucet(address recipient, uint value) external {\n        require(recipient != address(0), 'BEP20TokenFaucet: must be != 0 address');\n        require(value <= 100 ether, 'BEP20TokenFaucet: value <= 100 ether');\n        IBEP20(_tokenAddress).transfer(address(recipient), value);\n    }\n\n    function recharge(uint value) external {\n        require(value > 0, 'BEP20TokenFaucet: value must be > 0');\n        IBEP20(_tokenAddress).transferFrom(\n            address(msg.sender),\n            address(this),\n            value\n        );\n    }\n\n    function balance() public view returns (uint256) {\n        return IBEP20(_tokenAddress).balanceOf(address(this));\n    }\n}",
  "sourcePath": "/Users/marcinlucko/Praca/projects/etb-project2/backend/contracts/BEP20TokenFaucet.sol",
  "compiler": {
    "name": "solc",
    "version": "0.8.7+commit.e28d00a7.Emscripten.clang"
  },
  "schemaVersion": "3.3.4",
  "updatedAt": "2021-09-01T16:30:59.005Z",
  "networkType": "ethereum",
  "devdoc": {
    "kind": "dev",
    "methods": {
      "owner()": {
        "details": "Returns the address of the current owner."
      },
      "renounceOwnership()": {
        "details": "Leaves the contract without owner. It will not be possible to call `onlyOwner` functions anymore. Can only be called by the current owner. NOTE: Renouncing ownership will leave the contract without an owner, thereby removing any functionality that is only available to the owner."
      },
      "transferOwnership(address)": {
        "details": "Transfers ownership of the contract to a new account (`newOwner`). Can only be called by the current owner."
      }
    },
    "version": 1
  },
  "userdoc": {
    "kind": "user",
    "methods": {},
    "version": 1
  }
}