{
  "contractName": "ETBStaking",
  "abi": [
    {
      "inputs": [
        {
          "internalType": "address",
          "name": "tokenForStaking",
          "type": "address"
        },
        {
          "internalType": "address",
          "name": "rewardToken",
          "type": "address"
        }
      ],
      "stateMutability": "nonpayable",
      "type": "constructor"
    },
    {
      "anonymous": false,
      "inputs": [
        {
          "indexed": true,
          "internalType": "address",
          "name": "previousOwner",
          "type": "address"
        },
        {
          "indexed": true,
          "internalType": "address",
          "name": "newOwner",
          "type": "address"
        }
      ],
      "name": "OwnershipTransferred",
      "type": "event"
    },
    {
      "anonymous": false,
      "inputs": [
        {
          "indexed": true,
          "internalType": "uint256",
          "name": "_stage",
          "type": "uint256"
        },
        {
          "indexed": true,
          "internalType": "address",
          "name": "_user",
          "type": "address"
        },
        {
          "indexed": true,
          "internalType": "uint256",
          "name": "_amount",
          "type": "uint256"
        }
      ],
      "name": "Stake",
      "type": "event"
    },
    {
      "anonymous": false,
      "inputs": [
        {
          "indexed": true,
          "internalType": "uint256",
          "name": "_stage",
          "type": "uint256"
        },
        {
          "indexed": true,
          "internalType": "uint256",
          "name": "_startTime",
          "type": "uint256"
        },
        {
          "indexed": true,
          "internalType": "uint256",
          "name": "_endTime",
          "type": "uint256"
        },
        {
          "indexed": false,
          "internalType": "uint256",
          "name": "_reward",
          "type": "uint256"
        }
      ],
      "name": "StakingStageCreated",
      "type": "event"
    },
    {
      "anonymous": false,
      "inputs": [
        {
          "indexed": true,
          "internalType": "uint256",
          "name": "_stage",
          "type": "uint256"
        },
        {
          "indexed": true,
          "internalType": "address",
          "name": "_user",
          "type": "address"
        },
        {
          "indexed": true,
          "internalType": "uint256",
          "name": "_amount",
          "type": "uint256"
        },
        {
          "indexed": false,
          "internalType": "uint256",
          "name": "_reward",
          "type": "uint256"
        },
        {
          "indexed": false,
          "internalType": "uint256",
          "name": "_depositTime",
          "type": "uint256"
        }
      ],
      "name": "Withdraw",
      "type": "event"
    },
    {
      "inputs": [],
      "name": "owner",
      "outputs": [
        {
          "internalType": "address",
          "name": "",
          "type": "address"
        }
      ],
      "stateMutability": "view",
      "type": "function",
      "constant": true
    },
    {
      "inputs": [],
      "name": "renounceOwnership",
      "outputs": [],
      "stateMutability": "nonpayable",
      "type": "function"
    },
    {
      "inputs": [
        {
          "internalType": "address",
          "name": "newOwner",
          "type": "address"
        }
      ],
      "name": "transferOwnership",
      "outputs": [],
      "stateMutability": "nonpayable",
      "type": "function"
    },
    {
      "inputs": [
        {
          "internalType": "uint256",
          "name": "reward",
          "type": "uint256"
        },
        {
          "internalType": "uint256",
          "name": "startTime",
          "type": "uint256"
        },
        {
          "internalType": "uint256",
          "name": "endTime",
          "type": "uint256"
        }
      ],
      "name": "addStakeStage",
      "outputs": [],
      "stateMutability": "nonpayable",
      "type": "function"
    },
    {
      "inputs": [
        {
          "internalType": "uint256",
          "name": "stage",
          "type": "uint256"
        },
        {
          "internalType": "uint256",
          "name": "value",
          "type": "uint256"
        }
      ],
      "name": "stake",
      "outputs": [],
      "stateMutability": "nonpayable",
      "type": "function"
    },
    {
      "inputs": [
        {
          "internalType": "uint256",
          "name": "stage",
          "type": "uint256"
        }
      ],
      "name": "withdraw",
      "outputs": [],
      "stateMutability": "nonpayable",
      "type": "function"
    },
    {
      "inputs": [
        {
          "internalType": "uint256",
          "name": "stage",
          "type": "uint256"
        },
        {
          "internalType": "address",
          "name": "staker",
          "type": "address"
        }
      ],
      "name": "getReward",
      "outputs": [
        {
          "internalType": "uint256",
          "name": "",
          "type": "uint256"
        }
      ],
      "stateMutability": "view",
      "type": "function",
      "constant": true
    },
    {
      "inputs": [
        {
          "internalType": "uint256",
          "name": "stage",
          "type": "uint256"
        }
      ],
      "name": "isStackingStageIsActive",
      "outputs": [
        {
          "internalType": "bool",
          "name": "",
          "type": "bool"
        }
      ],
      "stateMutability": "view",
      "type": "function",
      "constant": true
    },
    {
      "inputs": [],
      "name": "getStackingStagesLength",
      "outputs": [
        {
          "internalType": "uint256",
          "name": "",
          "type": "uint256"
        }
      ],
      "stateMutability": "view",
      "type": "function",
      "constant": true
    },
    {
      "inputs": [
        {
          "internalType": "uint256",
          "name": "stage",
          "type": "uint256"
        }
      ],
      "name": "getStackingStage",
      "outputs": [
        {
          "internalType": "uint256",
          "name": "",
          "type": "uint256"
        },
        {
          "internalType": "uint256",
          "name": "",
          "type": "uint256"
        },
        {
          "internalType": "uint256",
          "name": "",
          "type": "uint256"
        },
        {
          "internalType": "uint256",
          "name": "",
          "type": "uint256"
        },
        {
          "internalType": "uint256",
          "name": "",
          "type": "uint256"
        }
      ],
      "stateMutability": "view",
      "type": "function",
      "constant": true
    },
    {
      "inputs": [
        {
          "internalType": "address",
          "name": "rewardToken",
          "type": "address"
        }
      ],
      "name": "setRewardToken",
      "outputs": [],
      "stateMutability": "nonpayable",
      "type": "function"
    },
    {
      "inputs": [
        {
          "internalType": "address",
          "name": "supportedToken",
          "type": "address"
        }
      ],
      "name": "setSupportedToken",
      "outputs": [],
      "stateMutability": "nonpayable",
      "type": "function"
    },
    {
      "inputs": [],
      "name": "getRewardToken",
      "outputs": [
        {
          "internalType": "address",
          "name": "",
          "type": "address"
        }
      ],
      "stateMutability": "view",
      "type": "function",
      "constant": true
    },
    {
      "inputs": [],
      "name": "getSupportedToken",
      "outputs": [
        {
          "internalType": "address",
          "name": "",
          "type": "address"
        }
      ],
      "stateMutability": "view",
      "type": "function",
      "constant": true
    },
    {
      "inputs": [],
      "name": "getOwner",
      "outputs": [
        {
          "internalType": "address",
          "name": "",
          "type": "address"
        }
      ],
      "stateMutability": "view",
      "type": "function",
      "constant": true
    },
    {
      "inputs": [
        {
          "internalType": "address",
          "name": "token",
          "type": "address"
        }
      ],
      "name": "rescueBEP20",
      "outputs": [],
      "stateMutability": "nonpayable",
      "type": "function"
    },
    {
      "inputs": [],
      "name": "rescue",
      "outputs": [],
      "stateMutability": "payable",
      "type": "function",
      "payable": true
    }
  ],
  "bytecode": "0x60806040523480156200001157600080fd5b50604051620016e8380380620016e88339810160408190526200003491620000de565b6200003f3362000071565b600180546001600160a01b039384166001600160a01b0319918216179091556002805492909316911617905562000116565b600080546001600160a01b038381166001600160a01b0319831681178455604051919092169283917f8be0079c531659141344cd1fd0a4f28419497f9722a3daafe3b4186f6b6457e09190a35050565b80516001600160a01b0381168114620000d957600080fd5b919050565b60008060408385031215620000f257600080fd5b620000fd83620000c1565b91506200010d60208401620000c1565b90509250929050565b6115c280620001266000396000f3fe6080604052600436106100fd5760003560e01c80637b0472f011610095578063b2a0616411610064578063b2a0616414610281578063bc2f2dcf1461029f578063de63b2cf146102bf578063e1408410146102ef578063f2fde38b1461030f57600080fd5b80637b0472f014610223578063893d20e8146102435780638aee8127146102615780638da5cb5b1461024357600080fd5b80632e1a7d4d116100d15780632e1a7d4d1461019c5780632f37acdb146101bc57806369940d79146101dc578063715018a61461020e57600080fd5b80628f33d71461010257806311367c2d146101355780631e8754f91461017d5780631fbe197914610192575b600080fd5b34801561010e57600080fd5b5061012261011d366004611364565b61032f565b6040519081526020015b60405180910390f35b34801561014157600080fd5b50610155610150366004611332565b610342565b604080519586526020860194909452928401919091526060830152608082015260a00161012c565b34801561018957600080fd5b50600354610122565b61019a610443565b005b3480156101a857600080fd5b5061019a6101b7366004611332565b6104b6565b3480156101c857600080fd5b5061019a6101d73660046112f5565b61087c565b3480156101e857600080fd5b506002546001600160a01b03165b6040516001600160a01b03909116815260200161012c565b34801561021a57600080fd5b5061019a6109c8565b34801561022f57600080fd5b5061019a61023e366004611390565b6109fe565b34801561024f57600080fd5b506000546001600160a01b03166101f6565b34801561026d57600080fd5b5061019a61027c3660046112f5565b610d02565b34801561028d57600080fd5b506001546001600160a01b03166101f6565b3480156102ab57600080fd5b5061019a6102ba3660046112f5565b610d74565b3480156102cb57600080fd5b506102df6102da366004611332565b610de6565b604051901515815260200161012c565b3480156102fb57600080fd5b5061019a61030a3660046113b2565b610e67565b34801561031b57600080fd5b5061019a61032a3660046112f5565b6111a7565b600061033b8383611242565b9392505050565b600080600080600060038054905086106103775760405162461bcd60e51b815260040161036e90611470565b60405180910390fd5b6003868154811061038a5761038a611576565b906000526020600020906005020160000154600387815481106103af576103af611576565b906000526020600020906005020160010154600388815481106103d4576103d4611576565b906000526020600020906005020160020154600389815481106103f9576103f9611576565b90600052602060002090600502016003015460038a8154811061041e5761041e611576565b9060005260206000209060050201600401549450945094509450945091939590929450565b6000546001600160a01b0316331461046d5760405162461bcd60e51b815260040161036e906114b1565b600080546001600160a01b03166040519091506001600160a01b038216904780156108fc02916000818181858888f193505050501580156104b2573d6000803e3d6000fd5b5050565b60035481106104d75760405162461bcd60e51b815260040161036e90611470565b600381815481106104ea576104ea611576565b906000526020600020906005020160010154421161051a5760405162461bcd60e51b815260040161036e906113de565b6105248133611242565b6002546040516370a0823160e01b81523060048201526001600160a01b03909116906370a082319060240160206040518083038186803b15801561056757600080fd5b505afa15801561057b573d6000803e3d6000fd5b505050506040513d601f19601f8201168201806040525081019061059f919061134b565b101561060b5760405162461bcd60e51b815260206004820152603560248201527f4554425374616b696e673a206e6f7420656e6f7567682062616c616e6365206660448201527437b9103932bbb0b932102122a81918103a37b5b2b760591b606482015260840161036e565b6000818152600460209081526040808320338452909152902080546106725760405162461bcd60e51b815260206004820152601b60248201527f4554425374616b696e673a204e6f74207374616b65686f6c6465720000000000604482015260640161036e565b60008160010154116106d15760405162461bcd60e51b815260206004820152602260248201527f4554425374616b696e673a205573657220616c726561647920776974686472616044820152613bb760f11b606482015260840161036e565b600181015460006106e28433611242565b60015460405163a9059cbb60e01b8152336004820152602481018590529192506001600160a01b03169063a9059cbb90604401602060405180830381600087803b15801561072f57600080fd5b505af1158015610743573d6000803e3d6000fd5b505050506040513d601f19601f820116820180604052508101906107679190611310565b5060025460405163a9059cbb60e01b8152336004820152602481018390526001600160a01b039091169063a9059cbb90604401602060405180830381600087803b1580156107b457600080fd5b505af11580156107c8573d6000803e3d6000fd5b505050506040513d601f19601f820116820180604052508101906107ec9190611310565b5082546000808555600180860191909155600380548790811061081157610811611576565b906000526020600020906005020160040160008282546108319190611549565b909155505060408051838152602081018390528491339188917f30011545efcd097ee25dae81386c1513acbd42b2af85ac6caae1a3b7d5193366910160405180910390a45050505050565b6000546001600160a01b031633146108a65760405162461bcd60e51b815260040161036e906114b1565b6040516370a0823160e01b81523060048201526000906001600160a01b038316906370a082319060240160206040518083038186803b1580156108e857600080fd5b505afa1580156108fc573d6000803e3d6000fd5b505050506040513d601f19601f82011682018060405250810190610920919061134b565b9050816001600160a01b031663a9059cbb6109436000546001600160a01b031690565b6040516001600160e01b031960e084901b1681526001600160a01b03909116600482015260248101849052604401602060405180830381600087803b15801561098b57600080fd5b505af115801561099f573d6000803e3d6000fd5b505050506040513d601f19601f820116820180604052508101906109c39190611310565b505050565b6000546001600160a01b031633146109f25760405162461bcd60e51b815260040161036e906114b1565b6109fc6000611289565b565b6003548210610a1f5760405162461bcd60e51b815260040161036e90611470565b60038281548110610a3257610a32611576565b9060005260206000209060050201600101544211610a625760405162461bcd60e51b815260040161036e906113de565b60038281548110610a7557610a75611576565b906000526020600020906005020160020154421115610ad65760405162461bcd60e51b815260206004820152601960248201527f4554425374616b696e673a207374616b696e6720656e64656400000000000000604482015260640161036e565b6001546040516370a0823160e01b815233600482015282916001600160a01b0316906370a082319060240160206040518083038186803b158015610b1957600080fd5b505afa158015610b2d573d6000803e3d6000fd5b505050506040513d601f19601f82011682018060405250810190610b51919061134b565b1015610b6f5760405162461bcd60e51b815260040161036e906114e6565b60008281526004602090815260408083203384529091529020805415610be85760405162461bcd60e51b815260206004820152602860248201527f4554425374616b696e673a205573657220616c726561647920696e207374616b6044820152671a5b99c81c1bdbdb60c21b606482015260840161036e565b6001546040516323b872dd60e01b8152336004820152306024820152604481018490526001600160a01b03909116906323b872dd90606401602060405180830381600087803b158015610c3a57600080fd5b505af1158015610c4e573d6000803e3d6000fd5b505050506040513d601f19601f82011682018060405250810190610c729190611310565b50428155600181018054839190600090610c8d908490611531565b92505081905550600160038481548110610ca957610ca9611576565b90600052602060002090600502016004016000828254610cc99190611531565b90915550506040518290339085907f02567b2553aeb44e4ddd5d68462774dc3de158cb0f2c2da1740e729b22086aff90600090a4505050565b6000546001600160a01b03163314610d2c5760405162461bcd60e51b815260040161036e906114b1565b6001600160a01b038116610d525760405162461bcd60e51b815260040161036e90611420565b600280546001600160a01b0319166001600160a01b0392909216919091179055565b6000546001600160a01b03163314610d9e5760405162461bcd60e51b815260040161036e906114b1565b6001600160a01b038116610dc45760405162461bcd60e51b815260040161036e90611420565b600180546001600160a01b0319166001600160a01b0392909216919091179055565b6003546000908210610e0a5760405162461bcd60e51b815260040161036e90611470565b60038281548110610e1d57610e1d611576565b90600052602060002090600502016001015442118015610e61575060038281548110610e4b57610e4b611576565b9060005260206000209060050201600201544211155b92915050565b6000546001600160a01b03163314610e915760405162461bcd60e51b815260040161036e906114b1565b60008311610ee15760405162461bcd60e51b815260206004820152601e60248201527f4554425374616b696e673a20726577617264206d757374206265203e20300000604482015260640161036e565b818111610f485760405162461bcd60e51b815260206004820152602f60248201527f4554425374616b696e673a20737461727454696d65206d757374206265206c6560448201526e7373207468656e20656e6454496d6560881b606482015260840161036e565b6002546040516370a0823160e01b815233600482015284916001600160a01b0316906370a082319060240160206040518083038186803b158015610f8b57600080fd5b505afa158015610f9f573d6000803e3d6000fd5b505050506040513d601f19601f82011682018060405250810190610fc3919061134b565b1015610fe15760405162461bcd60e51b815260040161036e906114e6565b6002546040516323b872dd60e01b8152336004820152306024820152604481018590526001600160a01b03909116906323b872dd90606401602060405180830381600087803b15801561103357600080fd5b505af1158015611047573d6000803e3d6000fd5b505050506040513d601f19601f8201168201806040525081019061106b9190611310565b506040805160a081018252848152602080820185815282840185815260006060850181815260808601828152600380546001810182559381905296517fc2575a0e9e593c00f959f8c92f12db2869c3395a3b0502d05e2516446f71f85b60059094029384015593517fc2575a0e9e593c00f959f8c92f12db2869c3395a3b0502d05e2516446f71f85c83015591517fc2575a0e9e593c00f959f8c92f12db2869c3395a3b0502d05e2516446f71f85d82015590517fc2575a0e9e593c00f959f8c92f12db2869c3395a3b0502d05e2516446f71f85e82015590517fc2575a0e9e593c00f959f8c92f12db2869c3395a3b0502d05e2516446f71f85f90910155905491518581528392859290917f2f63014cff23f93c6d690103928ff100fc60cd79062c6ea90beae9d002cff323910160405180910390a4505050565b6000546001600160a01b031633146111d15760405162461bcd60e51b815260040161036e906114b1565b6001600160a01b0381166112365760405162461bcd60e51b815260206004820152602660248201527f4f776e61626c653a206e6577206f776e657220697320746865207a65726f206160448201526564647265737360d01b606482015260840161036e565b61123f81611289565b50565b60035460009083106112665760405162461bcd60e51b815260040161036e90611470565b50600091825260046020908152604083206001600160a01b039290921683525290565b600080546001600160a01b038381166001600160a01b0319831681178455604051919092169283917f8be0079c531659141344cd1fd0a4f28419497f9722a3daafe3b4186f6b6457e09190a35050565b80356001600160a01b03811681146112f057600080fd5b919050565b60006020828403121561130757600080fd5b61033b826112d9565b60006020828403121561132257600080fd5b8151801515811461033b57600080fd5b60006020828403121561134457600080fd5b5035919050565b60006020828403121561135d57600080fd5b5051919050565b6000806040838503121561137757600080fd5b82359150611387602084016112d9565b90509250929050565b600080604083850312156113a357600080fd5b50508035926020909101359150565b6000806000606084860312156113c757600080fd5b505081359360208301359350604090920135919050565b60208082526022908201527f4554425374616b696e673a207374616b696e67206e6f74207374617265642079604082015261195d60f21b606082015260800190565b60208082526030908201527f4554425374616b696e673a20737570706f72746564546f6b656e2063616e277460408201526f206265207a65726f206164647265737360801b606082015260800190565b60208082526021908201527f4554425374616b696e673a2077726f6e67206e756d626572206f6620737461676040820152606560f81b606082015260800190565b6020808252818101527f4f776e61626c653a2063616c6c6572206973206e6f7420746865206f776e6572604082015260600190565b6020808252602b908201527f4554425374616b696e673a206e6f7420656e6f7567682072657175697265642060408201526a2122a81918103a37b5b2b760a91b606082015260800190565b6000821982111561154457611544611560565b500190565b60008282101561155b5761155b611560565b500390565b634e487b7160e01b600052601160045260246000fd5b634e487b7160e01b600052603260045260246000fdfea26469706673582212203cd4e62d5a3bb8eabdbfca8761e19fa982370726cdd880acfb3be76bb5c300cf64736f6c63430008070033",
  "immutableReferences": {},
  "source": "// SPDX-License-Identifier: MIT\n\npragma solidity ^0.8.7;\n\nimport \"./utils/IBEP20/IBEP20.sol\";\nimport \"@openzeppelin/contracts/utils/math/SafeMath.sol\";\nimport \"@openzeppelin/contracts/access/Ownable.sol\";\n\ncontract ETBStaking is Ownable {\n    using SafeMath for uint256;\n\n    struct StakerInfo {\n        uint256 _depositTime;\n        uint256 _amount;\n    }\n\n    struct StakingStage {\n        uint256 _reward;\n        uint256 _startTime;\n        uint256 _endTime;\n        uint256 _tokens;\n        uint256 _holders;\n    }\n\n    event Stake(\n        uint256 indexed _stage,\n        address indexed _user,\n        uint256 indexed _amount\n    );\n\n    event StakingStageCreated(\n        uint256 indexed _stage,\n        uint256 indexed _startTime,\n        uint256 indexed _endTime,\n        uint256 _reward\n    );\n\n    event Withdraw(\n        uint256 indexed _stage,\n        address indexed _user,\n        uint256 indexed _amount,\n        uint256 _reward,\n        uint256 _depositTime\n    );\n\n    address internal _tokenForStaking;\n    address internal _rewardToken;\n\n    StakingStage[] private _stakingStages;\n\n    mapping(uint256 => mapping(address => StakerInfo)) _stagesStakeHolders;\n\n    constructor(\n        address tokenForStaking,\n        address rewardToken) {\n        _tokenForStaking = tokenForStaking;\n        _rewardToken = rewardToken;\n    }\n\n    function addStakeStage(uint256 reward, uint256 startTime, uint256 endTime) external onlyOwner {\n        require(reward > 0, \"ETBStaking: reward must be > 0\");\n        require(endTime > startTime, \"ETBStaking: startTime must be less then endTIme\");\n        require(IBEP20(_rewardToken).balanceOf(msg.sender) >= reward, 'ETBStaking: not enough required BEP20 token');\n\n        IBEP20(_rewardToken).transferFrom(\n            address(msg.sender),\n            address(this),\n            reward\n        );\n\n        _stakingStages.push(StakingStage({\n            _reward : reward,\n            _startTime : startTime,\n            _endTime : endTime,\n            _tokens : 0,\n            _holders: 0\n            }));\n\n        emit StakingStageCreated(\n            _stakingStages.length,\n            startTime,\n            endTime,\n            reward\n        );\n    }\n\n    function stake(uint256 stage, uint256 value) external {\n        require(stage < _stakingStages.length, 'ETBStaking: wrong number of stage');\n        require(block.timestamp > _stakingStages[stage]._startTime, 'ETBStaking: staking not stared yet');\n        require(block.timestamp <= _stakingStages[stage]._endTime, 'ETBStaking: staking ended');\n        require(IBEP20(_tokenForStaking).balanceOf(msg.sender) >= value, 'ETBStaking: not enough required BEP20 token');\n        StakerInfo storage stakeHolder = _stagesStakeHolders[stage][msg.sender];\n        require(stakeHolder._depositTime == 0, \"ETBStaking: User already in staking pool\");\n\n        IBEP20(_tokenForStaking).transferFrom(\n            address(msg.sender),\n            address(this),\n            value\n        );\n\n        stakeHolder._depositTime = block.timestamp;\n        stakeHolder._amount += value;\n\n        _stakingStages[stage]._holders += 1;\n\n        emit Stake({\n            _stage : stage,\n            _user : msg.sender,\n            _amount : value\n            }\n        );\n    }\n\n    function withdraw(uint256 stage) external {\n        require(stage < _stakingStages.length, 'ETBStaking: wrong number of stage');\n        require(block.timestamp > _stakingStages[stage]._startTime, 'ETBStaking: staking not stared yet');\n        require(IBEP20(_rewardToken).balanceOf(address(this)) >= _calculateReward(stage, msg.sender), 'ETBStaking: not enough balance for reward BEP20 token');\n        StakerInfo storage stakeHolder = _stagesStakeHolders[stage][msg.sender];\n        require(stakeHolder._depositTime > 0, \"ETBStaking: Not stakeholder\");\n        require(stakeHolder._amount > 0, \"ETBStaking: User already withdrawn\");\n\n        uint256 value = stakeHolder._amount;\n        uint256 reward = _calculateReward(stage, msg.sender);\n\n        IBEP20(_tokenForStaking).transfer(address(msg.sender), value);\n        IBEP20(_rewardToken).transfer(address(msg.sender), reward);\n\n        uint256 depositTime = stakeHolder._depositTime;\n\n        stakeHolder._depositTime = 0;\n        stakeHolder._amount = 0;\n        _stakingStages[stage]._holders -= 1;\n\n        emit Withdraw({\n            _stage : stage,\n            _user : msg.sender,\n            _amount : value,\n            _reward : reward,\n            _depositTime : depositTime\n            });\n    }\n\n    function getReward(uint256 stage, address staker) external view returns (uint256) {\n        return _calculateReward(stage, staker);\n    }\n\n    function _calculateReward(uint256 stage, address stakerAddress) internal view returns (uint256) {\n        require(stage < _stakingStages.length, 'ETBStaking: wrong number of stage');\n        StakerInfo storage staker = _stagesStakeHolders[stage][stakerAddress];\n        //FIXME\n        return 0;\n    }\n\n    function isStackingStageIsActive(uint256 stage) external view returns (bool) {\n        require(stage < _stakingStages.length, 'ETBStaking: wrong number of stage');\n        return block.timestamp > _stakingStages[stage]._startTime && block.timestamp <= _stakingStages[stage]._endTime;\n    }\n\n    function getStackingStagesLength() external view returns (uint256) {\n        return _stakingStages.length;\n    }\n\n    function getStackingStage(uint256 stage) external view returns (uint256, uint256, uint256, uint256, uint256) {\n        require(stage < _stakingStages.length, 'ETBStaking: wrong number of stage');\n        return (\n        _stakingStages[stage]._reward,\n        _stakingStages[stage]._startTime,\n        _stakingStages[stage]._endTime,\n        _stakingStages[stage]._tokens,\n        _stakingStages[stage]._holders\n        );\n    }\n\n    function setRewardToken(address rewardToken) external onlyOwner {\n        require(rewardToken != address(0), 'ETBStaking: supportedToken can\\'t be zero address');\n        _rewardToken = rewardToken;\n    }\n\n    function setSupportedToken(address supportedToken) external onlyOwner {\n        require(supportedToken != address(0), 'ETBStaking: supportedToken can\\'t be zero address');\n        _tokenForStaking = supportedToken;\n    }\n\n    function getRewardToken() external view returns (address) {\n        return _rewardToken;\n    }\n\n    function getSupportedToken() external view returns (address) {\n        return _tokenForStaking;\n    }\n\n    function getOwner() external view returns (address) {\n        return owner();\n    }\n\n    function rescueBEP20(address token) external onlyOwner {\n        uint256 amt = IBEP20(token).balanceOf(address(this));\n        IBEP20(token).transfer(owner(), amt);\n    }\n\n    function rescue() external payable onlyOwner {\n        address payable addressOwner = payable(address(owner()));\n        addressOwner.transfer(address(this).balance);\n    }\n}",
  "sourcePath": "/Users/marcinlucko/Praca/projects/etb-project2/backend/contracts/ETBStaking.sol",
  "compiler": {
    "name": "solc",
    "version": "0.8.7+commit.e28d00a7.Emscripten.clang"
  },
  "schemaVersion": "3.3.4",
  "updatedAt": "2021-08-31T21:49:47.990Z",
  "networkType": "ethereum",
  "devdoc": {
    "kind": "dev",
    "methods": {
      "owner()": {
        "details": "Returns the address of the current owner."
      },
      "renounceOwnership()": {
        "details": "Leaves the contract without owner. It will not be possible to call `onlyOwner` functions anymore. Can only be called by the current owner. NOTE: Renouncing ownership will leave the contract without an owner, thereby removing any functionality that is only available to the owner."
      },
      "transferOwnership(address)": {
        "details": "Transfers ownership of the contract to a new account (`newOwner`). Can only be called by the current owner."
      }
    },
    "version": 1
  },
  "userdoc": {
    "kind": "user",
    "methods": {},
    "version": 1
  }
}