{
  "contractName": "ETBStaking",
  "abi": [
    {
      "inputs": [
        {
          "internalType": "address",
          "name": "tokenForStaking",
          "type": "address"
        },
        {
          "internalType": "address",
          "name": "rewardToken",
          "type": "address"
        }
      ],
      "stateMutability": "nonpayable",
      "type": "constructor"
    },
    {
      "anonymous": false,
      "inputs": [
        {
          "indexed": true,
          "internalType": "address",
          "name": "previousOwner",
          "type": "address"
        },
        {
          "indexed": true,
          "internalType": "address",
          "name": "newOwner",
          "type": "address"
        }
      ],
      "name": "OwnershipTransferred",
      "type": "event"
    },
    {
      "anonymous": false,
      "inputs": [
        {
          "indexed": true,
          "internalType": "uint256",
          "name": "_stage",
          "type": "uint256"
        },
        {
          "indexed": true,
          "internalType": "address",
          "name": "_user",
          "type": "address"
        },
        {
          "indexed": true,
          "internalType": "uint256",
          "name": "_amount",
          "type": "uint256"
        }
      ],
      "name": "Stake",
      "type": "event"
    },
    {
      "anonymous": false,
      "inputs": [
        {
          "indexed": true,
          "internalType": "uint256",
          "name": "_stage",
          "type": "uint256"
        },
        {
          "indexed": true,
          "internalType": "uint256",
          "name": "_reward",
          "type": "uint256"
        },
        {
          "indexed": true,
          "internalType": "uint256",
          "name": "_duration",
          "type": "uint256"
        }
      ],
      "name": "StakingStageCreated",
      "type": "event"
    },
    {
      "anonymous": false,
      "inputs": [
        {
          "indexed": true,
          "internalType": "uint256",
          "name": "_stage",
          "type": "uint256"
        },
        {
          "indexed": true,
          "internalType": "address",
          "name": "_user",
          "type": "address"
        },
        {
          "indexed": true,
          "internalType": "uint256",
          "name": "_amount",
          "type": "uint256"
        },
        {
          "indexed": false,
          "internalType": "uint256",
          "name": "_reward",
          "type": "uint256"
        },
        {
          "indexed": false,
          "internalType": "uint256",
          "name": "_depositTime",
          "type": "uint256"
        }
      ],
      "name": "Withdraw",
      "type": "event"
    },
    {
      "inputs": [],
      "name": "owner",
      "outputs": [
        {
          "internalType": "address",
          "name": "",
          "type": "address"
        }
      ],
      "stateMutability": "view",
      "type": "function",
      "constant": true
    },
    {
      "inputs": [],
      "name": "renounceOwnership",
      "outputs": [],
      "stateMutability": "nonpayable",
      "type": "function"
    },
    {
      "inputs": [
        {
          "internalType": "address",
          "name": "newOwner",
          "type": "address"
        }
      ],
      "name": "transferOwnership",
      "outputs": [],
      "stateMutability": "nonpayable",
      "type": "function"
    },
    {
      "inputs": [
        {
          "internalType": "uint256",
          "name": "reward",
          "type": "uint256"
        },
        {
          "internalType": "uint256",
          "name": "duration",
          "type": "uint256"
        }
      ],
      "name": "addStakeStage",
      "outputs": [],
      "stateMutability": "nonpayable",
      "type": "function"
    },
    {
      "inputs": [
        {
          "internalType": "uint256",
          "name": "stage",
          "type": "uint256"
        },
        {
          "internalType": "uint256",
          "name": "value",
          "type": "uint256"
        }
      ],
      "name": "stake",
      "outputs": [],
      "stateMutability": "nonpayable",
      "type": "function"
    },
    {
      "inputs": [
        {
          "internalType": "uint256",
          "name": "stage",
          "type": "uint256"
        }
      ],
      "name": "withdraw",
      "outputs": [],
      "stateMutability": "nonpayable",
      "type": "function"
    },
    {
      "inputs": [
        {
          "internalType": "uint256",
          "name": "stage",
          "type": "uint256"
        },
        {
          "internalType": "address",
          "name": "staker",
          "type": "address"
        }
      ],
      "name": "getReward",
      "outputs": [
        {
          "internalType": "uint256",
          "name": "",
          "type": "uint256"
        }
      ],
      "stateMutability": "view",
      "type": "function",
      "constant": true
    },
    {
      "inputs": [
        {
          "internalType": "uint256",
          "name": "stage",
          "type": "uint256"
        }
      ],
      "name": "isStackingStageIsActive",
      "outputs": [
        {
          "internalType": "bool",
          "name": "",
          "type": "bool"
        }
      ],
      "stateMutability": "view",
      "type": "function",
      "constant": true
    },
    {
      "inputs": [],
      "name": "getStackingStagesLength",
      "outputs": [
        {
          "internalType": "uint256",
          "name": "",
          "type": "uint256"
        }
      ],
      "stateMutability": "view",
      "type": "function",
      "constant": true
    },
    {
      "inputs": [
        {
          "internalType": "address",
          "name": "rewardToken",
          "type": "address"
        }
      ],
      "name": "setRewardToken",
      "outputs": [],
      "stateMutability": "nonpayable",
      "type": "function"
    },
    {
      "inputs": [
        {
          "internalType": "address",
          "name": "supportedToken",
          "type": "address"
        }
      ],
      "name": "setSupportedToken",
      "outputs": [],
      "stateMutability": "nonpayable",
      "type": "function"
    },
    {
      "inputs": [],
      "name": "getRewardToken",
      "outputs": [
        {
          "internalType": "address",
          "name": "",
          "type": "address"
        }
      ],
      "stateMutability": "view",
      "type": "function",
      "constant": true
    },
    {
      "inputs": [],
      "name": "getSupportedToken",
      "outputs": [
        {
          "internalType": "address",
          "name": "",
          "type": "address"
        }
      ],
      "stateMutability": "view",
      "type": "function",
      "constant": true
    },
    {
      "inputs": [],
      "name": "getOwner",
      "outputs": [
        {
          "internalType": "address",
          "name": "",
          "type": "address"
        }
      ],
      "stateMutability": "view",
      "type": "function",
      "constant": true
    },
    {
      "inputs": [
        {
          "internalType": "address",
          "name": "token",
          "type": "address"
        }
      ],
      "name": "rescueBEP20",
      "outputs": [],
      "stateMutability": "nonpayable",
      "type": "function"
    },
    {
      "inputs": [],
      "name": "rescue",
      "outputs": [],
      "stateMutability": "payable",
      "type": "function",
      "payable": true
    }
  ],
  "bytecode": "0x608060405234801561001057600080fd5b50604051620013eb380380620013eb833981016040819052610031916100d7565b61003a3361006b565b600180546001600160a01b039384166001600160a01b0319918216179091556002805492909316911617905561010a565b600080546001600160a01b038381166001600160a01b0319831681178455604051919092169283917f8be0079c531659141344cd1fd0a4f28419497f9722a3daafe3b4186f6b6457e09190a35050565b80516001600160a01b03811681146100d257600080fd5b919050565b600080604083850312156100ea57600080fd5b6100f3836100bb565b9150610101602084016100bb565b90509250929050565b6112d1806200011a6000396000f3fe6080604052600436106100f25760003560e01c80637b0472f01161008a578063b2a0616411610059578063b2a061641461024e578063bc2f2dcf1461026c578063de63b2cf1461028c578063f2fde38b146102bc57600080fd5b80637b0472f0146101f0578063893d20e8146102105780638aee81271461022e5780638da5cb5b1461021057600080fd5b80632e1a7d4d116100c65780632e1a7d4d146101695780632f37acdb1461018957806369940d79146101a9578063715018a6146101db57600080fd5b80628f33d7146100f75780631475317a1461012a5780631e8754f91461014c5780631fbe197914610161575b600080fd5b34801561010357600080fd5b5061011761011236600461110e565b6102dc565b6040519081526020015b60405180910390f35b34801561013657600080fd5b5061014a61014536600461113a565b6102ef565b005b34801561015857600080fd5b50600354610117565b61014a610583565b34801561017557600080fd5b5061014a6101843660046110dc565b6105f6565b34801561019557600080fd5b5061014a6101a436600461109f565b61097f565b3480156101b557600080fd5b506002546001600160a01b03165b6040516001600160a01b039091168152602001610121565b3480156101e757600080fd5b5061014a610acb565b3480156101fc57600080fd5b5061014a61020b36600461113a565b610b01565b34801561021c57600080fd5b506000546001600160a01b03166101c3565b34801561023a57600080fd5b5061014a61024936600461109f565b610dc9565b34801561025a57600080fd5b506001546001600160a01b03166101c3565b34801561027857600080fd5b5061014a61028736600461109f565b610e15565b34801561029857600080fd5b506102ac6102a73660046110dc565b610ed0565b6040519015158152602001610121565b3480156102c857600080fd5b5061014a6102d736600461109f565b610f51565b60006102e88383610fec565b9392505050565b6000546001600160a01b031633146103225760405162461bcd60e51b8152600401610319906111df565b60405180910390fd5b600082116103725760405162461bcd60e51b815260206004820152601e60248201527f4554425374616b696e673a20726577617264206d757374206265203e203000006044820152606401610319565b600081116103c25760405162461bcd60e51b815260206004820181905260248201527f4554425374616b696e673a206475726174696f6e206d757374206265203e20306044820152606401610319565b6002546040516370a0823160e01b815233600482015283916001600160a01b0316906370a082319060240160206040518083038186803b15801561040557600080fd5b505afa158015610419573d6000803e3d6000fd5b505050506040513d601f19601f8201168201806040525081019061043d91906110f5565b101561045b5760405162461bcd60e51b815260040161031990611214565b6002546040516323b872dd60e01b8152336004820152306024820152604481018490526001600160a01b03909116906323b872dd90606401602060405180830381600087803b1580156104ad57600080fd5b505af11580156104c1573d6000803e3d6000fd5b505050506040513d601f19601f820116820180604052508101906104e591906110ba565b5060036040518060800160405280848152602001428152602001834261050b919061125f565b81526020908101849052825460018181018555600094855282852084516004909302019182559183015191810191909155604080830151600283015560609092015160039182015554905183928592917f58a8b4e62b114a9e266835fb662601a4fba10b43fb304471811b01b9bc96c2ee9190a45050565b6000546001600160a01b031633146105ad5760405162461bcd60e51b8152600401610319906111df565b600080546001600160a01b03166040519091506001600160a01b038216904780156108fc02916000818181858888f193505050501580156105f2573d6000803e3d6000fd5b5050565b60035481106106175760405162461bcd60e51b81526004016103199061119e565b6003818154811061062a5761062a611285565b906000526020600020906004020160010154421161065a5760405162461bcd60e51b81526004016103199061115c565b6106648133610fec565b6002546040516370a0823160e01b81523060048201526001600160a01b03909116906370a082319060240160206040518083038186803b1580156106a757600080fd5b505afa1580156106bb573d6000803e3d6000fd5b505050506040513d601f19601f820116820180604052508101906106df91906110f5565b101561074b5760405162461bcd60e51b815260206004820152603560248201527f4554425374616b696e673a206e6f7420656e6f7567682062616c616e6365206660448201527437b9103932bbb0b932102122a81918103a37b5b2b760591b6064820152608401610319565b6000818152600460209081526040808320338452909152902080546107b25760405162461bcd60e51b815260206004820152601b60248201527f4554425374616b696e673a204e6f74207374616b65686f6c64657200000000006044820152606401610319565b60008160010154116108115760405162461bcd60e51b815260206004820152602260248201527f4554425374616b696e673a205573657220616c726561647920776974686472616044820152613bb760f11b6064820152608401610319565b600181015460006108228433610fec565b60015460405163a9059cbb60e01b8152336004820152602481018590529192506001600160a01b03169063a9059cbb90604401602060405180830381600087803b15801561086f57600080fd5b505af1158015610883573d6000803e3d6000fd5b505050506040513d601f19601f820116820180604052508101906108a791906110ba565b5060025460405163a9059cbb60e01b8152336004820152602481018390526001600160a01b039091169063a9059cbb90604401602060405180830381600087803b1580156108f457600080fd5b505af1158015610908573d6000803e3d6000fd5b505050506040513d601f19601f8201168201806040525081019061092c91906110ba565b5082546000808555600185015560408051838152602081018390528491339188917f30011545efcd097ee25dae81386c1513acbd42b2af85ac6caae1a3b7d5193366910160405180910390a45050505050565b6000546001600160a01b031633146109a95760405162461bcd60e51b8152600401610319906111df565b6040516370a0823160e01b81523060048201526000906001600160a01b038316906370a082319060240160206040518083038186803b1580156109eb57600080fd5b505afa1580156109ff573d6000803e3d6000fd5b505050506040513d601f19601f82011682018060405250810190610a2391906110f5565b9050816001600160a01b031663a9059cbb610a466000546001600160a01b031690565b6040516001600160e01b031960e084901b1681526001600160a01b03909116600482015260248101849052604401602060405180830381600087803b158015610a8e57600080fd5b505af1158015610aa2573d6000803e3d6000fd5b505050506040513d601f19601f82011682018060405250810190610ac691906110ba565b505050565b6000546001600160a01b03163314610af55760405162461bcd60e51b8152600401610319906111df565b610aff6000611033565b565b6003548210610b225760405162461bcd60e51b81526004016103199061119e565b60038281548110610b3557610b35611285565b9060005260206000209060040201600101544211610b655760405162461bcd60e51b81526004016103199061115c565b60038281548110610b7857610b78611285565b906000526020600020906004020160020154421115610bd95760405162461bcd60e51b815260206004820152601960248201527f4554425374616b696e673a207374616b696e6720656e646564000000000000006044820152606401610319565b6001546040516370a0823160e01b815233600482015282916001600160a01b0316906370a082319060240160206040518083038186803b158015610c1c57600080fd5b505afa158015610c30573d6000803e3d6000fd5b505050506040513d601f19601f82011682018060405250810190610c5491906110f5565b1015610c725760405162461bcd60e51b815260040161031990611214565b60008281526004602090815260408083203384529091529020805415610ceb5760405162461bcd60e51b815260206004820152602860248201527f4554425374616b696e673a205573657220616c726561647920696e207374616b6044820152671a5b99c81c1bdbdb60c21b6064820152608401610319565b6001546040516323b872dd60e01b8152336004820152306024820152604481018490526001600160a01b03909116906323b872dd90606401602060405180830381600087803b158015610d3d57600080fd5b505af1158015610d51573d6000803e3d6000fd5b505050506040513d601f19601f82011682018060405250810190610d7591906110ba565b50428155600181018054839190600090610d9090849061125f565b90915550506040518290339085907f02567b2553aeb44e4ddd5d68462774dc3de158cb0f2c2da1740e729b22086aff90600090a4505050565b6000546001600160a01b03163314610df35760405162461bcd60e51b8152600401610319906111df565b600280546001600160a01b0319166001600160a01b0392909216919091179055565b6000546001600160a01b03163314610e3f5760405162461bcd60e51b8152600401610319906111df565b6001600160a01b038116610eae5760405162461bcd60e51b815260206004820152603060248201527f4554425374616b696e673a20737570706f72746564546f6b656e2063616e277460448201526f206265207a65726f206164647265737360801b6064820152608401610319565b600180546001600160a01b0319166001600160a01b0392909216919091179055565b6003546000908210610ef45760405162461bcd60e51b81526004016103199061119e565b60038281548110610f0757610f07611285565b90600052602060002090600402016001015442118015610f4b575060038281548110610f3557610f35611285565b9060005260206000209060040201600201544211155b92915050565b6000546001600160a01b03163314610f7b5760405162461bcd60e51b8152600401610319906111df565b6001600160a01b038116610fe05760405162461bcd60e51b815260206004820152602660248201527f4f776e61626c653a206e6577206f776e657220697320746865207a65726f206160448201526564647265737360d01b6064820152608401610319565b610fe981611033565b50565b60035460009083106110105760405162461bcd60e51b81526004016103199061119e565b50600091825260046020908152604083206001600160a01b039290921683525290565b600080546001600160a01b038381166001600160a01b0319831681178455604051919092169283917f8be0079c531659141344cd1fd0a4f28419497f9722a3daafe3b4186f6b6457e09190a35050565b80356001600160a01b038116811461109a57600080fd5b919050565b6000602082840312156110b157600080fd5b6102e882611083565b6000602082840312156110cc57600080fd5b815180151581146102e857600080fd5b6000602082840312156110ee57600080fd5b5035919050565b60006020828403121561110757600080fd5b5051919050565b6000806040838503121561112157600080fd5b8235915061113160208401611083565b90509250929050565b6000806040838503121561114d57600080fd5b50508035926020909101359150565b60208082526022908201527f4554425374616b696e673a207374616b696e67206e6f74207374617265642079604082015261195d60f21b606082015260800190565b60208082526021908201527f4554425374616b696e673a2077726f6e67206e756d626572206f6620737461676040820152606560f81b606082015260800190565b6020808252818101527f4f776e61626c653a2063616c6c6572206973206e6f7420746865206f776e6572604082015260600190565b6020808252602b908201527f4554425374616b696e673a206e6f7420656e6f7567682072657175697265642060408201526a2122a81918103a37b5b2b760a91b606082015260800190565b6000821982111561128057634e487b7160e01b600052601160045260246000fd5b500190565b634e487b7160e01b600052603260045260246000fdfea264697066735822122016a68cfc1d3ca9c13d4bd0eaffbcc53ba6233716af45807b779fce2963b08dcd64736f6c63430008070033",
  "immutableReferences": {},
  "source": "// SPDX-License-Identifier: MIT\n\npragma solidity ^0.8.7;\n\nimport \"./utils/IBEP20/IBEP20.sol\";\nimport \"@openzeppelin/contracts/utils/math/SafeMath.sol\";\nimport \"@openzeppelin/contracts/access/Ownable.sol\";\n\ncontract ETBStaking is Ownable {\n    using SafeMath for uint256;\n\n    struct StakerInfo {\n        uint256 _depositTime;\n        uint256 _amount;\n    }\n\n    struct StakingStage {\n        uint256 _reward;\n        uint256 _startTime;\n        uint256 _endTime;\n        uint256 _duration;\n    }\n\n    event Stake(\n        uint256 indexed _stage,\n        address indexed _user,\n        uint256 indexed _amount\n    );\n\n    event StakingStageCreated(\n        uint256 indexed _stage,\n        uint256 indexed _reward,\n        uint256 indexed _duration\n    );\n\n    event Withdraw(\n        uint256 indexed _stage,\n        address indexed _user,\n        uint256 indexed _amount,\n        uint256 _reward,\n        uint256 _depositTime\n    );\n\n    address internal _tokenForStaking;\n    address internal _rewardToken;\n\n    StakingStage[] private _stakingStages;\n\n    mapping(uint256 => mapping(address => StakerInfo)) _stagesStakeHolders;\n\n    constructor(\n        address tokenForStaking,\n        address rewardToken) {\n        _tokenForStaking = tokenForStaking;\n        _rewardToken = rewardToken;\n    }\n\n    function addStakeStage(uint256 reward, uint256 duration) external onlyOwner {\n        require(reward > 0, \"ETBStaking: reward must be > 0\");\n        require(duration > 0, \"ETBStaking: duration must be > 0\");\n        require(IBEP20(_rewardToken).balanceOf(msg.sender) >= reward, 'ETBStaking: not enough required BEP20 token');\n\n        IBEP20(_rewardToken).transferFrom(\n            address(msg.sender),\n            address(this),\n            reward\n        );\n\n        _stakingStages.push(StakingStage({\n            _reward : reward,\n            _startTime : block.timestamp,\n            _endTime : block.timestamp + duration,\n            _duration : duration\n            }));\n\n        emit StakingStageCreated(\n            _stakingStages.length,\n            reward,\n            duration\n        );\n    }\n\n    function stake(uint256 stage, uint256 value) external {\n        require(stage < _stakingStages.length, 'ETBStaking: wrong number of stage');\n        require(block.timestamp > _stakingStages[stage]._startTime, 'ETBStaking: staking not stared yet');\n        require(block.timestamp <= _stakingStages[stage]._endTime, 'ETBStaking: staking ended');\n        require(IBEP20(_tokenForStaking).balanceOf(msg.sender) >= value, 'ETBStaking: not enough required BEP20 token');\n\n        StakerInfo storage stakeHolder = _stagesStakeHolders[stage][msg.sender];\n        require(stakeHolder._depositTime == 0, \"ETBStaking: User already in staking pool\");\n\n        IBEP20(_tokenForStaking).transferFrom(\n            address(msg.sender),\n            address(this),\n            value\n        );\n\n        stakeHolder._depositTime = block.timestamp;\n        stakeHolder._amount += value;\n\n        emit Stake({\n            _stage : stage,\n            _user : msg.sender,\n            _amount : value\n            }\n        );\n    }\n\n    function withdraw(uint256 stage) external {\n        require(stage < _stakingStages.length, 'ETBStaking: wrong number of stage');\n        require(block.timestamp > _stakingStages[stage]._startTime, 'ETBStaking: staking not stared yet');\n        require(IBEP20(_rewardToken).balanceOf(address(this)) >= _calculateReward(stage, msg.sender), 'ETBStaking: not enough balance for reward BEP20 token');\n        StakerInfo storage stakeHolder = _stagesStakeHolders[stage][msg.sender];\n        require(stakeHolder._depositTime > 0, \"ETBStaking: Not stakeholder\");\n        require(stakeHolder._amount > 0, \"ETBStaking: User already withdrawn\");\n\n        uint256 value = stakeHolder._amount;\n        uint256 reward = _calculateReward(stage, msg.sender);\n\n        IBEP20(_tokenForStaking).transfer(address(msg.sender), value);\n        IBEP20(_rewardToken).transfer(address(msg.sender), reward);\n\n        uint256 depositTime = stakeHolder._depositTime;\n\n        stakeHolder._depositTime = 0;\n        stakeHolder._amount = 0;\n\n        emit Withdraw({\n            _stage : stage,\n            _user : msg.sender,\n            _amount : value,\n            _reward : reward,\n            _depositTime : depositTime\n            });\n    }\n\n    function getReward(uint256 stage, address staker) external view returns (uint256) {\n        return _calculateReward(stage, staker);\n    }\n\n    function _calculateReward(uint256 stage, address stakerAddress) internal view returns (uint256) {\n        require(stage < _stakingStages.length, 'ETBStaking: wrong number of stage');\n        StakerInfo storage staker = _stagesStakeHolders[stage][stakerAddress];\n        //FIXME\n        return 0;\n    }\n\n    function isStackingStageIsActive(uint256 stage) external view returns (bool) {\n        require(stage < _stakingStages.length, 'ETBStaking: wrong number of stage');\n        return block.timestamp > _stakingStages[stage]._startTime && block.timestamp <= _stakingStages[stage]._endTime;\n    }\n\n    function getStackingStagesLength() external view returns (uint256) {\n        return _stakingStages.length;\n    }\n\n    function setRewardToken(address rewardToken) external onlyOwner {\n        _rewardToken = rewardToken;\n    }\n\n    function setSupportedToken(address supportedToken) external onlyOwner {\n        require(supportedToken != address(0), 'ETBStaking: supportedToken can\\'t be zero address');\n        _tokenForStaking = supportedToken;\n    }\n\n    function getRewardToken() external view returns (address) {\n        return _rewardToken;\n    }\n\n    function getSupportedToken() external view returns (address) {\n        return _tokenForStaking;\n    }\n\n    function getOwner() external view returns (address) {\n        return owner();\n    }\n\n    function rescueBEP20(address token) external onlyOwner {\n        uint256 amt = IBEP20(token).balanceOf(address(this));\n        IBEP20(token).transfer(owner(), amt);\n    }\n\n    function rescue() external payable onlyOwner {\n        address payable addressOwner = payable(address(owner()));\n        addressOwner.transfer(address(this).balance);\n    }\n}",
  "sourcePath": "/Users/marcinlucko/Praca/projects/etb-project2/backend/contracts/ETBStaking.sol",
  "compiler": {
    "name": "solc",
    "version": "0.8.7+commit.e28d00a7.Emscripten.clang"
  },
  "schemaVersion": "3.3.4",
  "updatedAt": "2021-08-31T16:55:53.107Z",
  "networkType": "ethereum",
  "devdoc": {
    "kind": "dev",
    "methods": {
      "owner()": {
        "details": "Returns the address of the current owner."
      },
      "renounceOwnership()": {
        "details": "Leaves the contract without owner. It will not be possible to call `onlyOwner` functions anymore. Can only be called by the current owner. NOTE: Renouncing ownership will leave the contract without an owner, thereby removing any functionality that is only available to the owner."
      },
      "transferOwnership(address)": {
        "details": "Transfers ownership of the contract to a new account (`newOwner`). Can only be called by the current owner."
      }
    },
    "version": 1
  },
  "userdoc": {
    "kind": "user",
    "methods": {},
    "version": 1
  }
}